:020000040800F2
:10300000081B0020716F0008416F0008436F000823
:10301000456F0008476F0008496F00080000000076
:103020000000000000000000000000004B6F0008DE
:103030004D6F0008000000004F6F0008954D00081C
:10304000916F0008956F0008996F00089D6F000848
:10305000A16F0008A56F0008A96F0008AD6F0008F8
:10306000B16F0008B56F0008B96F0008BD6F0008A8
:10307000C16F0008C56F0008C96F0008CD6F000858
:10308000D16F0008D56F0008D96F0008DD6F000808
:10309000516F0008E16F0008E56F00083F4B000822
:1030A000E96F0008ED6F0008F16F0008F56F000888
:1030B000754C0008C9470008C34C0008F96F0008A8
:1030C000FD6F000801700008057000080970000815
:1030D0000D700008117000081570000819700008C4
:1030E000556F00081D70000821700008E74C0008AB
:1030F000134D000810B5DFF8844820B9216801207D
:103100000882002010BDDFF878080068006880475A
:1031100020680A3010BD10B5DFF8604820B921687A
:1031200001200882002010BDDFF854080068806884
:10313000804720680C3010BD10B5DFF84048DFF83C
:10314000482820681268C1784079926990472168C0
:103150008A7A9AB1002804BF087900280ED18878AD
:1031600060B9DFF81C080068C068804720684179B2
:10317000C1722068C1780173002010BD022010BD0B
:1031800010B5DFF8F817096818B902200882002086
:1031900010BDDFF8F847002020807F220878104219
:1031A00015D1487A0021820648BF41F00201217002
:1031B0004006217854BF01F0FE0041F0010020706C
:1031C000DFF8BC07006800698047204610BD00F0AA
:1031D0007F02012AF9D000F07F000228D7D1487978
:1031E000DFF8AC2700F00F01000652F8210007D5E8
:1031F00000F030001028E3D1002040F00100DEE7AD
:1032000000F44050B0F5805FDAD1002040F00100BA
:10321000D5E7F0B5DFF86407006881B0017811F0F8
:103220007F0106D1417A01F0DF014172002001B037
:10323000F0BD022901BF418800290179002951D13F
:103240004179DFF84C4721F080050A0654F8252023
:10325000DFF830371B784CBF02F0300202F44052E6
:103260009D423FD2002A1CBF807A00283AD008062F
:1032700054F825000BD500F0300010282AD128463C
:1032800000F039FC3021284600F0C5FB22E000F4B4
:103290004050B0F5805F1DD148F280064BF68F7725
:1032A0006DB9DFF8F00690F82C10002000F06AFCF1
:1032B0002068384080F44050304320600AE02846BF
:1032C00000F007FC54F82500384080F440503043AB
:1032D00044F82500DFF8A806006840698047002010
:1032E00001B0F0BD022001B0F0BD30B5DFF88C06B2
:1032F000DFF89C160268DFF88C5681B0537923F012
:1033000080001C0651F820402D784CBF04F030049A
:1033100004F44054A84206D2558825B9002C1CBF9D
:10332000927A002A02D1022001B030BD1B0651F86A
:10333000203048F2800205D548F6BF74234083F060
:10334000100304E04BF68F74234083F480531A4338
:1033500041F82020DFF828060068806980470020B7
:1033600001B030BDDFF814261268538A20B988886E
:10337000C01A1082002070470868181870472DE99D
:10338000F041DFF8F845206800F110063188002987
:1033900004BF007A04281FD1DFF8FC15DFF8FC0514
:1033A0000A78012A11D1DFF8F835DFF8F8551B68E3
:1033B00000229BB245F81320042530220280002011
:1033C000087020680572BDE8F08110210180072592
:1033D00020680572BDE8F081B7888F4205D30425C7
:1033E000B94288BF39460F4600E00225B168384629
:1033F00088478046002000F0A8FB01463A46404638
:1034000000F00AFC3946002000F0B3FB3088DFF8FA
:103410008C15C01B30807088381870803020088070
:103420004FF44050DFF88015088020680572BDE831
:10343000F08130B5DFF84445206881B001784578E7
:103440007F22114250D1092D23D1DFF83825C178D0
:1034500052788A425ED38278002A04BF8288002A8A
:1034600058D18172DFF81805006840688047DFF89E
:103470003025DFF830351268002192B243F812107F
:103480000620DFF81825302111802168087201B06C
:1034900030BD052D0BD1C178802947DA817800290C
:1034A00001BF81880029807A00283FD1DFE7032D02
:1034B0000FD1C178012904BF818800292AD1417A1E
:1034C00041F020014172DFF8B8040068C06980470C
:1034D000CDE7012D04BFC17801291BD18188C9B96D
:1034E000407A80060DD415E001F07F00012804D158
:1034F0000B2D0FD1FFF720FE0AE002280AD1012D83
:1035000002D1FFF786FE03E0032D03D1FFF7EDFEA6
:103510000028ACD0DFF8701409684969284688474C
:10352000032808BF0920B0D00028A0D021680820B7
:10353000087201B030BD10B5DFF84044206882B099
:103540004178062919D101787F22114235D180783E
:10355000012804D1DFF830040068C16980E0022846
:1035600004D1DFF824040068016A79E0032824D13B
:10357000DFF814040068416A72E000294AD14188EA
:10358000002904BFC188022917D10179A9B901789E
:103590007F22114204BF8288002A38D001F07F02C6
:1035A000012A18D1DFF8E0234079126892690021DE
:1035B000904710B92068807A48BBDFF8CC132068A8
:1035C0000968407809698847032852D12168092091
:1035D000087202B010BD01F07F010229EDD14079DF
:1035E000DFF8AC3300F00F0100F07002000653F872
:1035F0002100DFF890331B784CBF00F0300000F45E
:1036000040509942D9D2002AD7D10028D5D0DFF82E
:103610009C1325E0082906D100787F210842CCD1EF
:10362000DFF88C131CE00A2902BF017801F07F014A
:103630000129C2D1817A0029BFD04188002901BF68
:1036400001790029C1880129B7D1DFF83C234079ED
:1036500012689269002190470028AED1DFF8541318
:103660000800AAD020680022428281610020884799
:10367000002021680B8A1A464FF6FF74A24208BF49
:10368000092004D0022818BF002B03D1082008729B
:1036900002B010BD0878000622D5C8880090009CB2
:1036A0009C4202D20098088211E083420FD2B648B1
:1036B000006890F82C00834238BF002005D392FBAD
:1036C000F0F300FB132010B90120B34A1070AE488C
:1036D000006890F82C00888202B0BDE810404EE6E9
:1036E000032008724FF44050AF49088002B010BD6B
:1036F00030B5AB48B049A14C81B0006880B231F818
:10370000100021680A7A400000F18040092A00F583
:10371000C04014D010F8012B0A7010F8011B226869
:103720005170851C35F8040B00F060FA2168488060
:10373000288800F05BFA21688880A888C88001206A
:10374000216808722068C08810B9FFF772FE01E096
:10375000FFF7F1FE8F4890F82C10002000F012FACD
:103760002068017A082906D18F4A4FF480511180D0
:1037700010218A4A1180007A09280CBF01200020FC
:1037800001B030BD10B57D4C2068017A022918BF08
:10379000042904D1FFF7F3FD2068007A14E006291C
:1037A00011D14178052902BF01787F22114206D14B
:1037B000C07800F097F872480068006A8047724845
:1037C000006880688047082021680872714890F876
:1037D0002C10002000F0D6F92068017A082906D1C3
:1037E000714A4FF48051118010216C4A1180007A87
:1037F000092801D1012010BD002010BDF0B55F4C9B
:10380000206881B0017A022918BF04294FD003290A
:1038100018BF052945D100F11005A9682E880800B8
:1038200018BF002E14D0A888864288BF06463046AE
:10383000884707462888801B288068883018688059
:10384000002000F08CF901463246384600F028FA94
:10385000288850B154494FF440500880002100207E
:1038600000F087F94D49302008802888AA8821680F
:10387000904228BF032001D220B1052008722068A1
:10388000007A15E00620087200204549454A09687B
:1038900089B242F811003020404908802068007A3F
:1038A00006E0072903D138480068C068804708202F
:1038B00021680872374890F82C10002000F062F957
:1038C0002068017A082906D1374A4FF480511180C7
:1038D0001021324A1180007A09280CBF01200020F3
:1038E00001B0F0BDF0B427490D780024002D3DD083
:1038F00015F0030648F2800148F68F72244B0DD074
:10390000E7B253F827C002EA0C0C47EA0C0C41EA74
:103910000C0C641C43F827C0761EF1D1AD0825D0ED
:10392000E6B253F82670174037430F4343F826702A
:10393000641CE6B253F82670174037430F4343F830
:103940002670641CE6B253F82670174037430F43C5
:1039500043F82670641CE6B253F8267017403743CC
:103960000F43641C43F826706D1ED9D1134940F0F3
:1039700080000860F0BC704700000000B40E00201A
:10398000BC0E0020A8010020B80E0020E80E002088
:10399000005C004094000020FE0E0020F20E00208B
:1039A000505C004004600040F00E002081310008AF
:1039B000F530000817310008086000404C5C0040FA
:1039C000704710B450F8041B81B102681218001D32
:1039D00050F8043BDC0744BFA9F10104E31852F896
:1039E000044B43F8044B091FF9D1EBE710BC7047B7
:1039F0004FF6F8710840DFF8DC1108607047DFF817
:103A0000D82152F8203048F68F1C0CEA03031943E2
:103A100042F820107047DFF8C02152F8203048F6F5
:103A2000BF7C0CEA03035FEAC16C48BF83F010035C
:103A3000890648BF83F0200343F4004141F0800130
:103A400042F820107047DFF8902152F820304BF6F2
:103A50008F7C0CEA03035FEAC14C48BF83F48053B8
:103A6000890448BF83F4005343F4004141F08001CE
:103A700042F820107047DFF8601151F8202048F616
:103A8000BF731A4082F0300242F4004242F08002DA
:103A900041F820207047DFF8401151F820204BF604
:103AA0008F731A4082F4405242F4004242F0800286
:103AB00041F820207047DFF8201151F8202048F607
:103AC0008F631A4042F4004242F0800241F8202005
:103AD0007047DFF8041151F8202052040AD551F83C
:103AE000202048F68F731A4042F4404242F0800290
:103AF00041F820207047DFF8E01051F820205206EE
:103B00000AD551F8202048F68F731A4042F400423B
:103B100042F0C00241F820207047DFF8B820126858
:103B200092B202EBC000DFF8B4204908490042F825
:103B300010107047274A126892B202EBC000284A60
:103B40004908490042F8101070472249096889B2B3
:103B500001EBC000214951F8100080B270471D49A7
:103B6000096889B201EBC0001D4951F8100080B20C
:103B70007047184A126892B202EBC000194A42F824
:103B800010107047134A126892B202EBC000164A36
:103B90003F2902EB40000ADB4A091F23194208BFF4
:103BA000521E1204910941F40041016070474A0815
:103BB000C90748BF521C12049109016070470549AA
:103BC000096889B201EBC000074951F8100080056F
:103BD000800D7047505C0040005C00400060004079
:103BE00008600040046000400C6000400106090CC1
:103BF00041EA1020704750F8041B61B150F8042BC3
:103C0000D30744BFA9F101039A180023091F42F802
:103C1000043BFAD1EFE77047490001F18043511CA2
:103C2000491003F5C04300D1704730B411F00302CE
:103C300000F00B8010F8014B10F8015B44EA0524FA
:103C400023F8024B9B1C521EF4D1890800F02680F9
:103C500010F8012B10F8014B42EA042223F8022B42
:103C60009A1C10F8013B10F8014B43EA042322F898
:103C7000023B921C10F8013B10F8014B43EA04236D
:103C800022F8023B921C10F8013B10F8014B43EA6A
:103C9000042322F8023B931C491ED9D130BC704743
:103CA0004900521C01F18041521001F5C0411DD064
:103CB00012F0030300F0068051F804CB20F802CB89
:103CC0005B1EF9D1920811D051F8043B20F8023B59
:103CD000521E51F8043B20F8023B51F8043B20F8F7
:103CE000023B51F8043B20F8023BEDD17047000045
:103CF00070B584B04FF440514FF0006000F084FC88
:103D000000F096FC00F0F8FC00F00BFD002000F045
:103D100055FE002000F062FE032000F05FFE04204C
:103D200000F05CFE00F0F8FEC821072000F01EFF46
:103D3000072000F07DFF4FF47A71022000F016FF9B
:103D4000022000F075FF6421042000F00FFF042022
:103D500000F06EFF41F28831062000F007FF0620D8
:103D600000F066FF00F0F2FF012001F005F80120ED
:103D700000F02AFE012000F024FE4FF4C06000F0A5
:103D80000FFC01F00CF84FF4FA7001F01FF8DFF8A7
:103D9000E00501F025F86424A4A5284601F032F8D6
:103DA000462001F013F8641EF7D101F03DF8012020
:103DB00001F094FA01F057FB0FF2D4510CC901A89D
:103DC00001210CC00FF2D05000788DF8000000AA3D
:103DD0002D2001F0EEFC18B10FF2C05001F012F8E6
:103DE00001AA0621002001F0E4FC18B10FF2D05026
:103DF00001F008F801F032FD18B10FF2E05001F0C7
:103E000001F800AB0DF1020201A9032001F0F3FD5E
:103E100018B10FF2DC5000F0F5FF012003900723EA
:103E2000DFF85005029000220020019000211020B0
:103E30000090012001F015FE0FF2C85000F0E2FFE3
:103E400000F053FC01460FF2D85000F0DBFF0421D4
:103E50005FF0010001F0DEFC0FF2F454DFF81855BA
:103E6000DFF8186501F068F800F0E2F8402130460C
:103E700001F0A4FE0028F5D128680028F2D0002027
:103E80002860072000F0B8FE06CC00A8083C06C059
:103E9000062100A801F0B6FE022000F0ADFEE1E729
:103EA00010B588B04FF47A70069000200590642019
:103EB0000490002003902020029001900020DFF861
:103EC000C0440090E168DFF8BC0401EB410200EB64
:103ED00082034FF480410022084601F0FCFD58B1F6
:103EE000E1680FF2745000F08DFF642000F06EFF67
:103EF00002E000BF01F020F8A0680028FAD00020FE
:103F0000A06008B010BD70B5DFF87454DFF87424F9
:103F10000446286840F001002860237816780020C5
:103F20009E420BD100EB400302EB8302D1800A4694
:103F300001460FF2545000F065FF03E0167B0120AC
:103F40009E42EFD00121032000F090FD0120A860E7
:103F50000FF2585000F056FF0FF260556179284675
:103F600000F050FF2179284600F04CFFE178284608
:103F700000F048FFA178284600F044FF6178284609
:103F800000F040FF21780FF23C50BDE8704000F097
:103F900039BF10B50021032000F068FDDFF8E043D1
:103FA00000206060A060206820F0010020600FF217
:103FB0001C5000F027FF206840F0020020602068BD
:103FC00020F004002060206820F4807020602068C9
:103FD00020F400702060206820F480602060206859
:103FE00020F40060206010BD70B51546DFF8942302
:103FF00013890C4600215B1C984211D10FF2DC4062
:1040000000F000FF3CB171A615F8011B304600F02E
:10401000F9FE641EF8D1BDE870406DA000F0F2BE5C
:10402000928A0121521C9042E8D070BD2E000000FF
:10403000F0B5D34DD44C85B0E86800EBC000001952
:10404000407848B1FFF72CFFE86800EBC00000198A
:10405000411C002001F08AFE2868C00726D5E868C8
:1040600000EBC0000019807900BBE86800EBC000DD
:1040700000194079002844D10FF27041CCC901A841
:104080000121CCC001A800900223EE68BD4806EBD8
:10409000460700EB87004FF6FF72C08801F0FBFB7C
:1040A000E86800EBC0000019411D27E02868C00740
:1040B00027D5E86800EBC0000019007A08BBE86863
:1040C00000EBC0000019C079D8B90FF23041CCC95B
:1040D00001A80121CCC001A800900223EE68A948E4
:1040E00006EB460700EB87004FF6FF72C08801F031
:1040F000D2FBE86800EBC0000019C11D012001F0EF
:1041000035FE2868C00743D5E86800EBC0000019F9
:10411000807900283CD0E86800EBC0000019007AE4
:10412000B0B3E86800EBC0000019807880BB0FF2E4
:10413000DC300088ADF800009448006800EB800196
:10414000490001A801F022FE8E4EE86800EB400114
:1041500006EB810000AB0089811CE86800EB40079A
:1041600006EB87000222C08889B201F0D5FB462801
:1041700004D101A801F011FE0028E6D0E86800EBA8
:10418000C0000019811C012001F0F0FD05B0F0BD58
:104190002868C00717D5E86800EBC00000198079CF
:1041A00088B1E86800EBC0000019007A58B1E868EF
:1041B00000EBC0000019807828B1E868012802DA15
:1041C000E868401CE86005B0F0BD00002563000011
:1041D0000D0A0000411C0078042800D0704710B47C
:1041E00081B00878052806D03E2807D0FF2811D0D6
:1041F00001B010BC704701B010BCCAE6881C017841
:10420000012940F0B180401CB0F8011001B010BC91
:10421000401D78E6881C40F207420188891A00F0A8
:10422000A08040F2F932891A1ED040F20142891A68
:1042300008D00E390ED0491E68D0891E20D001B09A
:1042400010BC7047801C421D0179408801B010BC31
:1042500001F0B0BD801C421D8178B0F8030001B0B0
:10426000891E10BCC9B2BFE6B0F8090001B0002831
:1042700010BC14BF0FF298200FF2B82000F0C2BD9E
:10428000811C3F48404AC36803EBC3039B185B791A
:10429000C3B1C36803EBC3039B189B7993B9C3688D
:1042A000384AB1F8031003EB430402EB840319818D
:1042B000C16801EB410302EB83010A89C1680FF277
:1042C00098201FE0C36803EBC3039B18DB79002B26
:1042D0004AD0C36803EBC3039A18127A002A43D169
:1042E000C368284AB1F8031003EB430402EB8403CC
:1042F0005981C16801EB410302EB83014A89C1681E
:104300000FF2782001B010BC00F07CBD1C481E4AA2
:10431000C16801EBC1018918497959B1C16801EB44
:10432000C1018918897929B9C06800EBC0008018DB
:10433000811D11E0C16801EBC1018918C97999B1EA
:10434000C16801EBC1018918097A69B9C06800EB3D
:10435000C000801800F1080101B010BC012001F07C
:1043600005BD07490120486001B010BC704700003E
:10437000055C000840E20100E00E00200008024059
:1043800080010020C4000020C00E00208C6F0008B7
:10439000BB0000E18002000003000000436F6E6676
:1043A000696775726174696F6E206173206D6173E6
:1043B000746572206661696C65642E0A00000000F5
:1043C00053657474696E672042445F4144445220CF
:1043D0006661696C65642E0A000000004741545410
:1043E0005F496E6974206661696C65642E0A00001D
:1043F0004741505F496E6974206661696C65642E3F
:104400000A000000424C4520537461636B20496EE2
:10441000697469616C697A65642E0D0A0000000098
:10442000434C49454E543A20424C452053746163F5
:104430006B20496E697469616C697A656420202813
:10444000706C6174666F726D3A202564290A0D00E4
:104450004556454E540D00004572726F72207768C4
:10446000696C65207374617274696E6720636F6E26
:104470006E656374696F6E20746F20736572766504
:10448000722025642E0A0000646576696365202524
:104490006420636F6E6E656374696F6E2068616E11
:1044A000646C653A2025780D0A000000436F6E6E3B
:1044B000656374656420746F3A20000025303258BB
:1044C0002D000000253032580A0D00004469736346
:1044D0006F6E6E65637465640A0D000072656365D6
:1044E000697665642025643A20000000669A0C20F5
:1044F0000008969EE2119EB1E1F273D9669A0C20F3
:104500000008969EE2119EB1E2F273D9010000000C
:104510003E20436F6E6E656374696F6E20706172CA
:10452000616D65746572732072656A656374656434
:104530002E0A00003E20436F6E6E656374696F6ED5
:1045400020706172616D657465727320616363656B
:10455000707465642E0A00004465766963652025E1
:104560006420545820436861722048616E646C6511
:104570003A20253034580A0D000000004465766961
:104580006365202564205258204368617220486189
:104590006E646C653A20253034580A0D0000000026
:1045A0001C4908431C4908607047F0B40378C4787C
:1045B0001A460121F4B1184B1B68447803F4E063F8
:1045C000C3F5E0631B0AC3F10405AC4085780F26F0
:1045D00026FA03F707EA05032343104C1B01135582
:1045E000007800F01F0291400D4A400942F8201067
:1045F000F0BC704703F01F0001FA00F009495209AE
:1046000041F82200F0BC7047074A114008430749AF
:10461000086070470000FA050CED00E000E400E0DF
:1046200000E100E080E100E080FFFF1F08ED00E016
:1046300010B584B00121082001F0F4FB01208DF8B1
:10464000080000208DF80B0003208DF809000020E1
:104650008DF80A000420019001A9254C204601F0A4
:104660007DFAA08A40F00400A0825FF000008DF87F
:1046700000009DF8000008BB9DF80000401C8DF86C
:1046800000009DF80000C8B99DF80000401C8DF89E
:1046900000009DF8000088B99DF80000401C8DF8CE
:1046A00000009DF80000002808D19DF80000401C83
:1046B0008DF800009DF800000028DDD0208A0D490B
:1046C0000006800E00F0010080F00100087001A9D2
:1046D00000208DF80800204601F040FAA08A4FF62D
:1046E000FB710840A08204B010BD024800787047FA
:1046F000000C0240FD0E002000B581B001213F20DA
:1047000001F090FB0121012001F095FBDFF874021C
:1047100003210160DFF8701281600021416001B067
:1047200000BD70B582B003208DF804004FF6FF7411
:1047300000208DF8070000944FF0FF30DFF84C6246
:10474000DFF84C52C6F80004C5F80004C5F80008AC
:1047500000A940F2FF700090DFF8380201F0FEF986
:104760004FF6E770009000A9DFF82C0201F0F6F98F
:10477000009400A9304601F0F1F9009400A9284600
:1047800001F0ECF902B070BD01214FF4000001F01E
:104790005BBB00B581B04FF4C060FFF701FF142090
:1047A0008DF8000001208DF8010000208DF8020036
:1047B00001208DF8030000A8FFF7F7FE01B000BD4F
:1047C00000B1012001F050BB00B581B00121734858
:1047D00001F0ACFB72490120087001B000BD7148C6
:1047E0000178012900D1704710B5D0F8D817B1F57C
:1047F000FA6F04BF0021C0F8D817D0F8D417D0F84A
:10480000D8278A4202D10021017010BDD0F8D827E4
:10481000914239BFD0F8D817C1F5FA61D0F8D8273E
:10482000891A4129D0F8D83707D3D0F8D827403291
:104830004024C0F8D827403906E0D0F8D8270C46E5
:104840008918C0F8D8170021C0F8DC179BB20121E5
:1048500001701818A2B2C021001DFFF7DDF9A1B246
:104860000120FFF786F9BDE810400120FFF703B9EA
:104870004C49D1F8D42753181871501CB0F5FA6F71
:1048800008BF0020C1F8D407704747484168026854
:104890004069821800D1704730B444480023841C1A
:1048A000150F0A2D34BF303537352570120100251C
:1048B00065705B1C150F0A2D34BF30353735A57078
:1048C00012010025E5705B1C241D082BE8DB0A0F94
:1048D0000A2A34BF30323732827409010A0F0A2A99
:1048E00034BF30323732027509010A0F0A2A34BF49
:1048F000303237320901090F0A29C5744575C5756B
:1049000034BF3031373145768275017630BC70471F
:1049100030B42449D1F8D4374FF6FF72D1F8D847D4
:10492000641EA34206D0B3F5FA6F04BFD1F8D8478E
:10493000002C03D11446621E012CEFDA9AB90FF253
:1049400070020DE0D1F8D4375D185B1C2C71C1F8F2
:10495000D437B3F5FA6F04BF0023C1F8D437521C23
:104960001478002CEED1D1F8D4275318521C1871AA
:10497000C1F8D427B2F5FA6F04BF0022C1F8D427DA
:1049800030BC704728380240010000100008024087
:10499000000C0240000002400004024000040040FD
:1049A000FC0E0020AC0100205000F81F2C0100205C
:1049B0000A4F564552464C4F570A000004490860BA
:1049C0007047044908607047034908607047000059
:1049D00010000E4228000E4224000E4230B504287A
:1049E00083B004460ED8DFE800F0030507090B008A
:1049F000012006E0022004E0042002E0102000E094
:104A00002020009001208DF804000320022C8DF856
:104A1000050005D100A93D4801F0A0F803B030BD64
:104A20003B4D00A9284601F099F8042C1BD8DFE87B
:104A300004F016120B070300A88A40F0200011E0D2
:104A4000A88A40F010000DE03048818A41F004014E
:104A5000818203B030BDA88A40F0020002E0A88A3B
:104A600040F00100A88203B030BD0000012927D129
:104A7000042849D8DFE800F003090F181E00254874
:104A800001884FF6FE7211403DE0224801884FF642
:104A9000FD72114037E01F48B0F800144FF6FB726A
:104AA0001140A0F8001470471A4801884FF6EF72C1
:104AB000114028E0174801884FF6DF72114022E0CC
:104AC00011BB042820D8DFE800F003080D151A00F8
:104AD0001048018841F0010115E00E48018841F0BD
:104AE000020110E00B48B0F8001441F00401A0F8F6
:104AF000001470470748018841F0100103E00548A1
:104B0000018841F02001018070470000000C024044
:104B1000000802401408024000B512490120086054
:104B200083B04020009000A900208DF804000320ED
:104B30008DF805000C4801F011F803B000BD00B578
:104B400081B01021084801F045F8402001F035FA05
:104B500028B101B05DF804EB402001F036BA01B095
:104B600000BD0000E00E00200008024030B5801EAD
:104B7000052883B00C462AD8DFE800F003290A1381
:104B80001C220121012001F05FF94FF080451EE059
:104B90000121042001F058F94FF4006000F1804534
:104BA00015E00121082001F04FF94FF4406000F1B9
:104BB00080450CE00121102001F046F95E4D06E031
:104BC0000121202001F040F95B4800F5806549F69D
:104BD0004040ADF8000001940020ADF80200ADF8AF
:104BE000080000A9284601F05FF9012201212846AA
:104BF00001F094F903B030BD801E052816D8DFE817
:104C000000F003150B150D0F4FF080410020486296
:104C100001214FF0804007E0484802E0464800E0AC
:104C2000474800214162012101F06EB97047000040
:104C300000B5801E052881B00FD8DFE800F0030E14
:104C40000507090B1C2006E01E2004E02E2002E0D0
:104C50002B2000E02C208DF8000002208DF80100B0
:104C600001208DF802008DF8030000A8FFF79DFCDD
:104C700001B000BD00B581B001214FF0804001F0CE
:104C800058F9E0B101214FF0804001F05CF90021BA
:104C90004FF0804001F038F928480021416201219D
:104CA00001F032F9244800214162012101F02CF980
:104CB00001B05DF804EB2021224800F08BBF01B069
:104CC00000BD10B51D4C0121204601F032F948B15C
:104CD0000121204601F037F9BDE810402021194894
:104CE00000F078BF10BD10B5134C0121204601F033
:104CF00020F968B10121204601F025F900210F4873
:104D000001F002F92046BDE81040002101F0FCB896
:104D100010BD10B50A4C0121204601F00AF950B12E
:104D20000121204601F00FF90021204601F0ECF8A6
:104D300005490120086010BD001000400008004037
:104D40000014004000080240E00E002010B5094C9D
:104D5000062204F11801204601F050F9062204F160
:104D60001E0104F10C0001F039F9BDE8104000F01B
:104D7000FFBF00BFC4000020DFF81410002808683F
:104D800014BF40F0080020F00800086070470000E1
:104D9000003C024011480168491C0160704710B591
:104DA000EFF3108472B6042001F054F947F6FF4087
:104DB00001F05AF9012001F05AF9012001F06AF9D5
:104DC00084F3108810BD05480068704703490A68DD
:104DD0000B689B1A8342FBD370470000DC0E002057
:104DE00010B50446FFF7D0FCFFF7D3FC01F060F9E3
:104DF0000348046010BDFFF73BBD014A126810472D
:104E0000E40E00200EB400B582B003A90091024662
:104E100000AB0121034878440A3001F059F906BC7F
:104E20005DF810FB3521000010B5DFF8204304F1D8
:104E3000100001F0B9FB04F1180001F0B5FB04F11A
:104E4000200104F1100001F0C0FB04F1A80104F1FD
:104E5000100001F0BAFB04F5987104F1100001F0A4
:104E6000B4FB04F5DC7104F1100001F0AEFB04F5B5
:104E7000107104F11000BDE8104001F0A6BB70B540
:104E8000DFF8C84200F10803A360002163782BB962
:104E9000A38003E0042B4ED103236370A388802BEF
:104EA00049DAA3885D1CA580A56866785B5D002E45
:104EB000F0D0032E08BF0623EFD0042E08BF052331
:104EC000EBD0052E08BF0723E7D0072E08BF082325
:104ED000E3D0082E04D1B5F8032000210923DCE734
:104EE000062E03D11A4600210923D6E7092ED5D173
:104EF000491C89B292B29142D0D30021617000F175
:104F000008014A1C0978042908D111780E2918BF14
:104F10000F2903D0014604F1180002E0014604F114
:104F2000100001F052FBE06828B1A188A068E26897
:104F3000BDE87040104770BD10B5A2B000200090D1
:104F400000F0B8FADFF8044204F1180001F02FFB7A
:104F5000B8B900A904F1180001F03EFB00F0B8FA5E
:104F600000980830FFF736F900F0A4FA009904F130
:104F7000100001F02AFB04F1180001F018FB0028D2
:104F8000E7D0207848B90DE0802101A800F0B4FAFC
:104F9000C0B210B101A8FFF71DF900F07BFA00289C
:104FA000F2D1207000F094FA22B010BD10B582B09A
:104FB0000020009000F09AFADFF8904106E0009996
:104FC00004F1100001F0FAFA00F090FA00F07DF917
:104FD000C8B104F1100001F0EAFA80B900A904F1A7
:104FE000100001F0F9FA00988021083000F084FAEE
:104FF000C0B20028E3D00098FFF741FFE4E70120AA
:10500000207000F073FA02B010BD00B581B000F05E
:1050100051FADFF83C110120887001B000BD2DE984
:10502000F047044684B06088DFF820618846800538
:105030002188800D40EA8125DFF8180100680A21E7
:10504000B0FBF1F70020B0700322DFF80C01F06034
:1050500060882188D4F80890D4F80CA08DF806A0B8
:105060008005800D40EA8120ADF8040001A90120EF
:105070008DF800000DF1010001F0BDFA5FFA8AF32E
:105080000422494600A801F0C7FAB8F1000F37D151
:1050900007B90127394602A800F078FE06E0087833
:1050A00000284AD10020B07000F012FA02A800F0E7
:1050B00074FE002841D1B0780028F7D0B0680246CD
:1050C00011780429EED1C11CB0885278C01E0E2A76
:1050D0001ED00F2A04D0102A2FD03E2A20D0E1E77C
:1050E0004A88ADB2AA42DDD162680F2AD7D162697F
:1050F0009042C8BF104660610246206901F07BFA09
:105100000020F06000F0E4F9002004B0BDE8F08772
:10511000B1F80120ADB2AA42C4D1C91CC01EE6E755
:105120000A7863689A42BDD16269401E9042C8BF46
:10513000104660610246491CDFE70020F06000F085
:10514000C7F94FF0FF3004B0BDE8F0878C090020AC
:105150008C0900208C6F00080B50000810B5FFF779
:10516000C4FADFF8E04504EB80004069A065FFF772
:10517000BCFA04EB8000C069E065FFF7B6FA0FF2F5
:10518000E85151F820002066FFF7AFFA04EB8000E9
:10519000406A6066FFF7A9FA0FF2D45151F8200077
:1051A000A066FFF7A2FA04EB8000C06AE066FFF792
:1051B0009CFA0FF2C45151F820002067FFF795FACE
:1051C00004EB4000808EA081FFF78FFA00198079F0
:1051D0002070FFF78AFA04EB8000806B6067FFF7AE
:1051E00084FA0FF29C5151F82000A067FFF77DFA76
:1051F00004EB4000B0F84000E081FFF776FA0019B8
:10520000007A6070FFF771FA04EB8000406CE06791
:10521000FFF76BFA0FF2705151F82000C4F88000CC
:10522000FFF763FA04EB4000B0F84C002082FFF770
:105230005CFA0019807AA070FFF757FA0FF2585104
:1052400051F82000C4F88400FFF74FFA04EB800007
:10525000006DC4F88800FFF748FA0FF2345151F896
:105260002000C4F88C00FFF740FA0FF2345151F8D7
:105270002000C4F89000FFF738FA0FF22C51405C80
:10528000E070FFF732FA0FF22451405C2071FFF713
:105290002CFA0FF21C51405C6071FFF726FA18B12E
:1052A000FFF723FA01280DD101214FF4804000F0CF
:1052B000CBFDD4F88400012140F0060000F0B2FDDF
:1052C000002010BD4FF0FF3010BDDFF87804D0F89B
:1052D0008C10D0F8880089B200F070BC30B58BB06B
:1052E0000446FFF73BFF10F1010F00F0BA80DFF832
:1052F00054542A78A989E86E00F070FC6A78E9892C
:10530000686F00F06BFCAA78298AE86F00F066FCF1
:10531000A96E686E012289B200F057FCA86E009059
:1053200000A901208DF8040000208DF80500ADF8DB
:105330000600686E00F012FCA96E686E002289B249
:1053400000F043FCD5F88000009000A902208DF801
:10535000040003208DF8050000208DF806000120D0
:105360008DF80700E86F00F0F9FB02208DF80700C8
:1053700000A9A86F0090686F00F0F0FB01208DF885
:10538000070000A9286F0090E86E00F0E7FB296E87
:10539000009101208DF8040001220020ADF80600E4
:1053A00089B203208DF80500E86D00F00EFCE86D71
:1053B00000A900F0D3FBD5F88C00009000A90020D4
:1053C0008DF8040002208DF80700D5F8880000F061
:1053D000C5FB0020ADF8140005A94FF48270ADF8AC
:1053E000160000200690ADF81C004FF40070ADF8D8
:1053F0001E000820ADF820000020ADF82200072094
:10540000ADF82400A86D01F025F9A86D012101F087
:105410003DF9012C24D12979E87800F02FFDD5F849
:105420009000039000208DF8100008208DF81100E6
:1054300001208DF8120003A800F088FDD5F8900037
:1054400000F0B8FD68798DF8080000208DF809009B
:105450008DF80A0001208DF80B0002A8FFF7A5F8CF
:1054600000200BB030BD10B5DFF8D842A16E606EE1
:10547000002289B200F0A9FB0520FFF7A7FCA16E6E
:10548000606E012289B200F0A0FBBDE8104005204B
:10549000FFF79CBC00B5DFF8AC02D0F88C10D0F858
:1054A000880081B089B200F089FB012818BF002074
:1054B00001B000BDDFF88C0290F90500012100F079
:1054C0001F029140DFF88022400942F82010704707
:1054D000DFF8700290F90500012100F01F029140F1
:1054E000DFF86822400942F820107047DFF85402C4
:1054F000D0F8900000F05EBD2DE9F0478A4684B0F8
:105500000FF24C2180460CC902A800260CC072B6CE
:105510008C4F396EF86D002289B200F056FB02AC58
:105520000DF1000905252178B86D01F0BBF8B86DC3
:10553000022101F0B9F80028F9D0B86D012101F07D
:10554000B3F80028F9D0B86D01F0AAF809F8010BFA
:10555000641C6D1EE7D19DF80000022824D19DF83F
:1055600004009DF8031051EA00241DD0A245B8BFE5
:105570005446012C18DBB86DFF2101F093F8B86D8B
:10558000022101F091F80028F9D0B86D012101F055
:105590008BF80028F9D0B86D01F082F806F8080001
:1055A000761CF6B2A642E6DB396EF86D012289B2AE
:1055B00000F00BFB62B6304604B0BDE8F0872DE981
:1055C000F34F87B014461D460FF28C115D4F0CC986
:1055D00005A80FF28C110CC00CC903A84FF00108EC
:1055E0000CC097F90500584A00F01F0108FA01F1B4
:1055F000400942F820104FF00009D7F88C000090C5
:105600008DF8048003208DF805008DF806900220A7
:105610008DF8070000A9D7F8880000F09FFAD7F8A6
:105620008C10D7F88800012289B200F0CEFACDF8AC
:10563000089003E000BF0298401C02900298B0F569
:10564000D27FF7DB396EF86D002289B200F0BDFA27
:1056500005AE0DF10C0A4FF0050B3178B86D01F075
:1056600021F8B86D022101F01FF80028F9D0B86DBB
:10567000012101F019F80028F9D0B86D01F010F8F7
:105680000AF8010B761CBBF1010BE6D1D7F88800B4
:105690008DF8049000A900F061FA9DF80C00022832
:1056A00038D19DF80D002919884230DBB4B1079E2E
:1056B0003178B86D00F0F6FFB86D022100F0F4FF0C
:1056C0000028F9D0B86D012100F0EEFF0028F9D0D4
:1056D000B86D00F0E5FF761C641EE9D1E5B1089CC9
:1056E0002178B86D00F0DEFFB86D022100F0DCFF1C
:1056F0000028F9D0B86D012100F0D6FF0028F9D0BC
:10570000B86D00F0CDFF641C6D1E05D0E8E76FF0AA
:10571000010901E04FF0FF39396EF86D012289B2BD
:1057200000F053FA97F90500084A00F01F0108FA43
:1057300001F1400942F82010484609B0BDE8F08F59
:10574000000000000000002080E100E000E100E037
:105750000B000000000000000A0000000000000034
:10576000AA0000000000000000100000001000006F
:1057700000200000002000000080000000800000E9
:105780000040000000400000002000000020000059
:1057900000040000000400000400000002000000FB
:1057A0000004000000040000020100000A0A0000DA
:1057B000282810B50C461146A21C812AA8B0A8BF03
:1057C000422025DA8DF81C008DF81D4022460DF18F
:1057D0001E0000F010FF1822002101A800F011FFA8
:1057E0003F20ADF8040000210C20ADF8060007A80A
:1057F0000390A01CC0B2049000A805900120069060
:1058000001A8FFF70CFC00284CBFFF209DF800000A
:1058100028B010BD00B589B08DF804008DF80510D2
:105820001822002102A800F0ECFE3F20ADF808008D
:1058300000210F20ADF80A0001A804900220059075
:1058400000A806900120079002A8FFF7E8FB0028B7
:105850004CBFFF209DF8000009B000BD00B587B027
:105860001822002101A800F0CCFE3F20ADF8040072
:10587000002140F20110ADF8060000A805900120BB
:10588000069001A8FFF7CBFB00284CBFFF209DF836
:10589000000007B000BD17B58DB01C4602220DA94F
:1058A00007A800F0A8FE02220EA90DF11E0000F0CC
:1058B000A2FE02220FA908A800F09DFE8DF822404A
:1058C000012C0CBF02241024129922460DF1230052
:1058D00000F091FE1822002101A800F092FE3F2066
:1058E000ADF8040000214FF48B70ADF8060007A856
:1058F0000390E01DC0B204900F20029000A8059014
:105900000120069001A8FFF78AFB00284CBFFF206A
:105910009DF8000010B010BD33B51446601D8128FD
:10592000A7B01D46A8BF422032DA022227A907A845
:1059300000F061FE022228A90DF11E0000F05BFEBE
:105940008DF82040224629460DF1210000F053FE3B
:105950001822002101A800F054FE3F20ADF80400F9
:10596000002140F22110ADF8060007A80390601D49
:10597000C0B204900F20029000A80590012006906C
:1059800001A8FFF74CFB00284CBFFF209DF800004A
:1059900029B030BD10B5152A8EB0144628BF42205C
:1059A00027D2ADF81C00ADF81E108DF82040194626
:1059B0000DF1210000F01FFE1822002101A800F0C7
:1059C00020FE3F20ADF80400002140F22310ADF886
:1059D000060007A80390601D049000A80590012010
:1059E000069001A8FFF71BFB00284CBFFF209DF885
:1059F00000000EB010BD70B58AB00C468DF80800DE
:105A000015461E460722002100A800F0FAFD1822C4
:105A1000002103A800F0F5FD3F20ADF80C000021A7
:105A20008A20ADF80E0002A805900120069000A87B
:105A300007900720089003A8FFF7F1FA002848BF55
:105A4000FF200CD49DF8000048B9BDF8010020806B
:105A5000BDF803002880BDF80500308000200AB0A2
:105A600070BD30B58FB08DF81C008DF81D10144638
:105A70001D46102221460DF11E0000F0BCFD1298BB
:105A80008DF82F008DF82E50182213988DF83000C5
:105A900000211498CDF8310015988DF8350001A833
:105AA00000F0AFFD3F20ADF8040000218620ADF8E6
:105AB000060007A803901A20049000A80590012072
:105AC000069001A8FFF7ABFA00284CBFFF209DF815
:105AD00000000FB030BD00B58DB0ADF80400ADF8DA
:105AE00006108DF80820194606220DF1090000F075
:105AF00082FD0E988DF80F0018220F98ADF8100057
:105B000000211098ADF812001198ADF81400129809
:105B1000ADF816001398ADF818001498ADF81A00F7
:105B200007A800F06EFD3F20ADF81C0000219C206E
:105B3000ADF81E0001A8099018200A900F200890C7
:105B400000A80B9001200C9007A8FFF768FA002826
:105B50004CBFFF209DF800000DB000BDF0B4002246
:105B6000002301240D6894402540A54220D10668F9
:105B70000F7903259D40ED432E409F403E43066034
:105B80000E79012E18BF022E0CD186684F792E4057
:105B90009F403E438660868826EA04048E799640BC
:105BA00034438480C4682C40CD799D402C43C4602C
:105BB000521C9B1C102AD4D3F0BC7047008A0022D0
:105BC000084218BF0122104670470AB1018370478E
:105BD00041837047828A514081827047CB0800EB35
:105BE000830001F007018900036A4FF00F0C0CFAE3
:105BF00001FC23EA0C03036202FA01F1036A194370
:105C0000016270472DE9F34F0025080083B0DFF8EB
:105C10004081504F00F097803888B0F5FF7FC4BFB7
:105C20000020388003983988285CC91908710398C6
:105C3000285CFFF7E0F83888401C388080B2C01933
:105C4000C1780D2918BF0A2976D10A21C1703FA059
:105C5000FFF7D8F8388801281FBF0026C21916712F
:105C6000002867D03888841B3B480068152CA8BFE3
:105C7000142400EB8001490000A800F087F838796F
:105C8000B8F806A0B8F80A90302818BF31280BD011
:105C9000322818BF332807D0342818BF352803D03E
:105CA000362818BF37281FD10021302808D101EB32
:105CB000410008EB8000B0F806A0B0F80A9002E0BE
:105CC00001213128F3D0F019031D09F10101E2B2DD
:105CD00089B25046FFF75EFE462827D100A800F0A3
:105CE0005CF80028EFD021E04FF0000A08F1060B25
:105CF00009F1010951460FF26400FFF783F8381DDE
:105D00003318BBF80000E2B21FFA89F1FFF742FE38
:105D1000462804D100A800F040F80028EFD00AF18E
:105D2000010ABAF1020F0BF10C0BE3DB3888A6195C
:105D3000864297DB002038806D1CBDF81000EDB264
:105D40008542FFF669AF05B0BDE8F08F0D0A00008F
:105D5000C4000020540C00208C6F000873656E6432
:105D6000696E6720746F2025640D0A000870704703
:105D700010B5054C1221204600F09EFC01206070F9
:105D8000A07210BD00000000C00E002010B5044637
:105D90006160FFF718F8206010BD10B50446FFF7EA
:105DA00012F822686168801A401C81428041C00F4D
:105DB00010BD000070B50C46144915468A88521C67
:105DC000904211D10FF24C00FFF71CF83CB10DA628
:105DD00015F8011B3046FFF715F8641EF8D1BDE831
:105DE000704009A0FFF70EB84988891C884204BF9B
:105DF0002878012804D10648016841F004010160B7
:105E000070BD0000256300000D0A0000D40E0020C4
:105E10008001002072657665697665642D633A209D
:105E2000000000000D4A0029116814BF084321EA50
:105E30000000106070470A4A0029116814BF084327
:105E400021EA000010607047064A0029116814BF5B
:105E5000084321EA00001060704700001C3802402F
:105E600020380240243802400D490028086812BF3B
:105E700040F00100400840000860704730B401F075
:105E8000030221F00301074B9200CC580F259540E7
:105E9000AC43CC509040CC582043C85030BC7047E5
:105EA0000400014008000140B0F1804F02881CBF8F
:105EB000104B984205D0104B98421CBF0F4B984294
:105EC00004D14FF68F731A404B881A430C4B9842FB
:105ED0001CBF0C4B984204D04FF6FF431A400B896D
:105EE0001A4302804A68C2620988018501218182C1
:105EF000704700000004004000080040000C004013
:105F000000100040001400400029018812BF41F039
:105F100001014FF6FE72114001807047002A82890C
:105F200014BF114322EA010181817047C9430182F4
:105F30007047038A8089002208400B421CBF00285A
:105F4000012210467047C9430182704730B401688E
:105F50008279CB431F4932B30A4614682340136049
:105F600053680468A34353600379CC182368056819
:105F70002B43236093680468A3439360D368046849
:105F8000A343D36043790568102B08D19168294356
:105F90009160D16800680843D06030BC7047CC186D
:105FA0002068284303E000790C182068184020601E
:105FB00030BC7047084908607047074A12680021E2
:105FC000024218BF01210846704703490860704724
:105FD00000000000000401401404014062B38B077C
:105FE00008D0521E11F8013B00F8013B00F024805C
:105FF0008B07F6D1830740F0208000BF103A07D30B
:1060000030B4B1E83810103AA0E83810F9D230BCFA
:10601000530724BFB1E80810A0E8081044BF51F8A6
:10602000043B40F8043BD20724BF31F8022B20F890
:10603000022B44BF0B7803707047083A07D3B1E8CE
:106040000810083A40F8043B40F804CBF7D2530755
:10605000E4E700001449042808680CBF40F004007D
:1060600020F004000860704710490860704701285C
:106070000D4904D1086840F001000860704710F134
:10608000020F04D1086840084000086070470020F3
:106090008860704704490028086814BF40F0020077
:1060A00020F002000860704710E000E014E000E01B
:1060B0000448054AC061022101724262034901623B
:1060C00008680047980E0020E80000209400002097
:1060D0002DE9F04F93B0804602AE002092461D4657
:1060E0000291B0610DF130090AE01AF8011B029823
:1060F000C0470290002800F0AA81B069401CB0613E
:106100009AF8000008B9B069A3E12528EDD1002074
:10611000F0603061706101E040F001001AF8011F89
:106120002029F9D023290DD02B2904D02D2906D0E0
:1061300030290AD00CE040F0020080B2EEE740F0D7
:106140000400FAE740F00800F7E740F01000F4E739
:106150002A290FD12968296051F8042B2960002AC7
:10616000326204D5514240F00400316280B20AF13B
:10617000010A15E0002131620CE0316A6FF0004342
:10618000994205D001EB810302EB430130393162C2
:106190000AF1010A9AF80020A2F130010A29ECD391
:1061A0009AF800102E2903D04FF0FF31F16122E060
:1061B0001AF8011F2A2908D1296829600AF1010A61
:1061C00051F8042B2960F26115E00021F1610CE027
:1061D000F1696FF00043994205D001EB810302EBB6
:1061E00043013039F1610AF1010A9AF80020A2F165
:1061F00030010A29ECD3B0840FF2A4309AF80010D1
:1062000000F05EFA08B11AF8010B8DF82E009DF827
:106210002E00682804BF9AF80000682804D1622084
:106220008DF82E000AF1010A0CA8B0601AF8014B93
:10623000252C13D0582C38D0632C00F09080642C7F
:1062400018BF692C65D06F2C2FD0702C23D0732CE5
:106250000AD0752C18BF782C27D08AE00120F06076
:1062600025208DF830008FE02868286050F8044B16
:1062700028607460F769002F04D5204600F02CFADE
:10628000074606E03A460021204600F041FA00B1F8
:10629000071B376178E02868286050F8041B2860E5
:1062A00001910CA87060782155E09DF82E206C2A91
:1062B0000DD0712A18BF6A2A09D12868C01D20F0A4
:1062C00007032B60D3E9000108332B6004E0296841
:1062D000296051F8040B2960682A019002D101A8B5
:1062E000008803E0622A02D101A80078019096F8A4
:1062F000240000072AD5019840B344F020007828F4
:1063000024D130208DF8300089F801400220F0605F
:106310001CE09DF82E00294600F09EF80028019010
:1063200004D5F068411CF1602D210DE0B08C81078F
:1063300004D5F068411CF1602B2105E0C00705D5AC
:10634000F068411CF160202100F80910F1680CA8E8
:1063500008187060214601A800F0A4F814E001209C
:10636000F0602868286050F8041B28608DF8301011
:106370000AE00120F06025208DF8300024B1F0689B
:10638000411CF16000F80940306AF168401A7169F7
:10639000401A3169441A96F8240040070FD420208F
:1063A0008DF80000002708E0012300AA01A940465B
:1063B00000F0DFF800284AD17F1CA742F4DBF76821
:1063C0000DF1300B0AE01BF8011B0298C047029048
:1063D00000283CD0B069401CB0617F1E002FF2D174
:1063E00030208DF800004FF0000B776908E00123A2
:1063F00000AA01A9404600F0BCF840BB0BF1010B1C
:10640000BB45F4DB3769D6F804B009E01BF8011B83
:106410000298C0470290D0B1B069401CB0617F1EA5
:10642000002FF3D196F8240040077FF569AE2020B5
:106430008DF8000000E07F1CA742BFF661AE01238B
:1064400000AA01A9404600F094F80028F3D04FF0CC
:10645000FF3013B0BDE8F08F622815D068280CD04B
:106460006C2818BF742816D07A2814D10A680A60DC
:1064700052F8040B0A60002170470A680A6052F85B
:10648000040B0A6000B20BE00A680A6052F8040BC1
:106490000A6040B204E00A680A6052F8040B0A601D
:1064A000C1177047F0B4C2686F2908BF082405D02F
:1064B00041F02003782B14BF0A2410241823066807
:1064C000642918BF6929374602D1002E48BF7F4290
:1064D0005FB9056A4DB9082C27D190F82810090733
:1064E00023D530211723D1751FE0B7FBF4F604FB49
:1064F000167730375D1EFFB23A2FA4BFA1F1510CC1
:106500006744AF542B46370003D085689E18B542C8
:10651000EBD3082C09D190F82810090705D5995C10
:10652000302902D05B1E30219954C3F1180141611A
:106530009A188260026A914208DA511A81614FF614
:10654000EF72018D11400185F0BC7047002A0ED515
:1065500090F8282002F01402102A08D1426A036938
:10656000D21A8369D21A531A012BA8BF8361F0BCD7
:106570007047F8B504460D4616461F46002004E055
:10658000E869401CE8617F1E002047B116F8011B36
:106590006868A04768600028F2D14FF0FF30F2BD74
:1065A000686C747A4C0000000060406070470168BD
:1065B000814201D1012070470020704702680A60C3
:1065C00048600160086841607047086042684A603E
:1065D000416048680160704702680A60006843686B
:1065E00002681A6042680068426000200A68106011
:1065F00009684860704710B50446FFF7EFFC204675
:1066000010BD10B5044610460A460146204600F06B
:10661000ABF8204610BD0000F0B504460C480068F9
:106620000D460A2183B0B0FBF1F116461F4600A8C3
:10663000FFF7ACFBFBB2F2B229462046FEF7BFFFE4
:1066400020B100A8FFF7A9FB0028F3D003B0F0BDEC
:106650008C6F000802880B8802F441521A434B8861
:106660001A438B881A43CB881A430B891A434B89E8
:106670001A438B891A43CB891A4302804FF2FF7366
:10668000828B1A408283098A01827047002901881F
:1066900012BF41F040014FF6BF72114001807047B8
:1066A000808970478181704700890022084218BFA5
:1066B0000122104670470000002200F089B8000057
:1066C0000278C9B28A421AB11CBF10F8012FF9E74B
:1066D00018BF00207047000000F10103810704D0BB
:1066E00010F8011B89B18107FAD10268B2F10131BA
:1066F000914311F0803F04BF50F8042FF6E710F8E3
:10670000011B11B110F8011BFBE7C01A7047000014
:10671000C9B2830706D0521E22D310F8013B99421A
:10672000F7D11FE0083A13D302F1040241EA012134
:1067300041EA014150F8043B121F21BF4B40A3F135
:10674000013C2CEA030C1CF0803FF3D0C9B2001FBF
:10675000083210F8013B521E28BF91EA030FF8D807
:1067600018BF0120401E704762F30F2262F31F42E0
:10677000401810F0030308D0C91A1FD3DB0748BF25
:1067800000F8012D28BF20F8022D130030B4144664
:106790001546103928BF20E93C00FAD8490728BF20
:1067A00020E90C0048BF40F8042D890028BF20F8DC
:1067B000022D48BF00F8012D30BC7047C91818BF22
:1067C00000F8012DCB0728BF00F8012D704700000D
:1067D00000B500BF130096469446103928BFA0E8C4
:1067E0000C50FAD85FEA417C28BF0CC048BF40F883
:1067F000042BC90728BF20F8022B48BF00F8012B43
:1068000000BD000000B581B0FEF73FF87949096886
:106810000020887200F002F900F018F90020764993
:10682000086001B000BD00B57248026881B0002167
:10683000917272490268C979517200210068C1726F
:106840000020FDF7D5F84FF400710020FDF7D7F8D0
:1068500010210020FDF7DFF840210020FDF76AF944
:1068600080210020FDF759F90020FDF724F9644844
:1068700090F82C100020FDF785F90020FDF70BF9AA
:1068800000210120FDF7BBF8C0210120FDF745F9EB
:1068900020210120FDF7BFF800210120FDF7D3F8EA
:1068A0004FF4C0610220FDF7AAF84FF48071022076
:1068B000FDF733F900210220FDF7C5F82021022061
:1068C000FDF7A9F800210320FDF799F84FF488712E
:1068D0000320FDF72FF940210320FDF753F94FF472
:1068E00040510320FDF7AFF800210320FDF793F896
:1068F0000020FCF7F7FF40490120086001B000BD0F
:106900004048807A10B13C490520086070473A49F8
:106910000420086070477047704700B5212881B097
:1069200009D134480068007800F07F00212817D191
:106930000FF2990112E0202812D12E49324809683D
:10694000097801F07F01212904D020210170022063
:1069500001B000BD20220FF289010270080002D1AF
:10696000022001B000BD23480068816100224282FC
:1069700000208847002001B000BD1E490968097841
:1069800001F07F01212905D1022818BF222801D159
:1069900000207047022070471C49FCF7E3BC1C49EB
:1069A000FCF7E0BC13490968C978052901DB002020
:1069B0007047184A02EBC101FCF7D4BC09B90228A0
:1069C00001DB0220704700207047000028B9094908
:1069D000096808200882002070470F4870470000AF
:1069E00028B90449096808200882002070470A482D
:1069F00070470000B40E0020F80E0020F86C00086C
:106A000094000020980E0020000F00209801002024
:106A1000A00100200C0100209001002000B581B0F1
:106A20000120FDF7CDFE0748074A01210160002142
:106A3000016041604FF4E05111800160002001B01D
:106A400000BD0000405C0040DA0E00200448054A0A
:106A5000002141604FF40641118001600020704721
:106A6000405C0040DA0E002070B500F07F050C4657
:106A70002846FDF7A4F806462846FDF770F80146BB
:106A800032462046FDF70CF9304670BD2DE9F04F37
:106A900081B00020ADF8000048F28004474DDFF8D7
:106AA0002081484EDFF82091DFF820A140F68F7B4F
:106AB0004BF6BF7726E000BF56F82010ADF8001067
:106AC000BDF8001009040AD556F820100BEA0101A0
:106AD00046F8201008EB800050F8040C8047BDF801
:106AE000000000060ED599F8000056F8201048F670
:106AF0000F72114046F82010354901EB800050F824
:106B0000040C8047706CAAF80000000453D5BAF852
:106B1000000010F00F0089F80000CDD13068288007
:106B2000288800F030006880288800F440502880D1
:106B30003068384080F4005080F0200020433060FE
:106B4000BAF80000C006306806D448F60F71084055
:106B50003060FCF717FE16E0ADF80000BDF800004D
:106B6000000506D530680BEA00003060FCF7C0FD78
:106B700009E0BDF800000004C4D530680BEA00004D
:106B80003060FCF73BFE306829883840C90429880A
:106B900048BF80F480508904698848BF80F4005061
:106BA000C906698848BF80F01000890648BF80F098
:106BB00020002043306001B0BDE8F08FF00E0020CF
:106BC00064010020005C0040FF0E0020F60E002053
:106BD000480100203E483F4A83B0016841F480717B
:106BE00001608168114081603B4A01681140016089
:106BF000016821F480210160816821F47D018160B8
:106C00000021C160019100910291016841F00101F0
:106C10000160016801F002010091009919B9019920
:106C2000B1F5A04FF5D10168490801F001010091CB
:106C30000099012907D1816821F47D018160816873
:106C400041F4880181604FF40062D0F8001441F0F3
:106C50000401C0F80014D0F8001441F00201C0F89B
:106C60000014D0F8001441F00101C0F80014416A8A
:106C700041F08051416219490A604A68D206FCD449
:106C8000816881608168816081688160816821F4A8
:106C90007D018160816841F408018160016841F0F3
:106CA0008071016001688901FCD5816889088900CB
:106CB0008160816841F003018160816801F00C010D
:106CC0000C29FAD14FF000600549086003B0704705
:106CD000003802400CC0FF88FEFFFEEE007000404E
:106CE00008ED00E01201000202000040830440575A
:106CF000000201020301000009024300020100C07A
:106D000032090400000102020100052400100105FF
:106D10002401000104240202052406000107058263
:106D2000030800FF09040100020A00000007050330
:106D3000024000000705810240000000040309042E
:106D40002603530054004D006900630072006F0079
:106D500065006C0065006300740072006F006E00D7
:106D600069006300730000003203530054004D00BB
:106D70003300320020005600690072007400750074
:106D800061006C00200043004F004D0020005000C7
:106D90006F007200740020002000000030B525480C
:106DA0000178012981B025D123490A681AB9002147
:106DB0000170002414E021480368412A1D4603D3D2
:106DC00040244033403A02E01446D31800220360C6
:106DD0000A60ADB21A48A2B2C0212818FCF71CFF05
:106DE000A1B20120FCF7C5FE01B0BDE83040012092
:106DF000FCF741BE01B030BD10B5124C2146032056
:106E0000FFF732FE81B22046FDF7F7FFBDE81040E4
:106E10000320FCF740BE0C480068052809D10B4848
:106E200001684A1C0129026003D100210160FDF7BD
:106E3000D6BC7047AC0100208809002084090020DE
:106E4000B0010020580E0020F80E0020EC0E0020AB
:106E500070B5134D134C2868134E608060883188DC
:106E60000840800507D54FF6FF5028602078401C69
:106E70002070FFF7D0FF608831880840000448BFC9
:106E8000FFF704FE608831880840400507D54FF6BB
:106E9000FF302860BDE8704004484068004770BD7E
:106EA000445C0040F40E0020DA0E00209400002024
:106EB00010B5074979441831064C7C44163404E077
:106EC0000A68081D511888470146A142F8D110BD33
:106ED00008000000280000001FCDFFFF580D000033
:106EE000AC01002000000000DBCAFFFFAC01000085
:106EF00034010000000000200000000000F00BF84A
:106F0000002801D0FFF7D4FF0020C046C046FCF7A0
:106F1000EFFE00F002F80120704700F001B8000019
:106F20000746384600F002F8FBE7000080B5C0468F
:106F3000C046024A11001820ABBEFBE72600020043
:106F40007047FEE7FEE7FEE7FEE7704770477047D1
:106F5000FFF77EBFFEF72AB838B504460D4628462F
:106F6000FDF7D6FCA84218BF0024204632BD000021
:106F70000148804701480047D56B0008816F000831
:106F8000C046C046C046C046FFF7B8FFE803000051
:106F9000FFF7FEBFFFF7FEBFFFF7FEBFFFF7FEBF25
:106FA000FFF7FEBFFFF7FEBFFFF7FEBFFFF7FEBF15
:106FB000FFF7FEBFFFF7FEBFFFF7FEBFFFF7FEBF05
:106FC000FFF7FEBFFFF7FEBFFFF7FEBFFFF7FEBFF5
:106FD000FFF7FEBFFFF7FEBFFFF7FEBFFFF7FEBFE5
:106FE000FFF7FEBFFFF7FEBFFFF7FEBFFFF7FEBFD5
:106FF000FFF7FEBFFFF7FEBFFFF7FEBFFFF7FEBFC5
:10700000FFF7FEBFFFF7FEBFFFF7FEBFFFF7FEBFB4
:10701000FFF7FEBFFFF7FEBFFFF7FEBFFFF7FEBFA4
:10702000FFF7FEBF0000000000000505050505058F
:107030000000000000000000003800400038004060
:107040000004024000040240000802400008024020
:1070500000040240000402400F000F000004024040
:10706000000402400E000E00000402400004024032
:107070000D000D0000080240000402400000000066
:107080000000000000000000000000000000000000
:1070900000000000000000000000000000000000F0
:1070A00000000000000000000000000000000000E0
:1070B00000000000000000000568000827680008C4
:1070C00017690008196900081B6900087B69000836
:1070D000BD690008996900089F690008A569000852
:1070E0000000000040000000000000000000000060
:1070F0000000000000000000000000000000000090
:10710000AA0000E18002CC0000E18002C139000841
:1071100001690008C1390008C1390008C1390008F7
:10712000C1390008C1390008C13900080F690008D9
:107130003C6D000804000000406D000826000000BF
:10714000686D0008320000002C0100201A000000C9
:107150001A03530054004D00330032003100300058
:107160000000000000000000000000009D6D00080D
:10717000C1390008C1390008C1390008C139000807
:10718000C1390008C1390008C1390008C1390008F7
:10719000F96D0008C1390008C1390008C13900087B
:1071A000C1390008020000000000000000000000DB
:1071B0000000000000C2010000000800E46C0008AC
:1071C00012000000F86C00084300000004010000F9
:0400000508006F81FF
:00000001FF
