:020000040800F2
:10300000C81A0020816D0008516D0008536D00083A
:10301000556D0008576D0008596D0008000000004C
:103020000000000000000000000000005B6D0008D0
:103030005D6D0008000000005F6D0008C9460008D3
:10304000A16D0008A56D0008A96D0008AD6D000810
:10305000B16D0008B56D0008B96D0008BD6D0008C0
:10306000C16D0008C56D0008C96D0008CD6D000870
:10307000D16D0008D56D0008D96D0008DD6D000820
:10308000E16D0008E56D0008E96D0008ED6D0008D0
:10309000616D0008F16D0008F56D0008956C000881
:1030A000F96D0008FD6D0008016E0008056E00084E
:1030B000655600080D520008B3560008096E000856
:1030C0000D6E0008116E0008156E0008196E0008DC
:1030D0001D6E0008216E0008256E0008296E00088C
:1030E000656D00082D6E0008316E0008D756000887
:1030F0000357000810B5DFF8844820B92168012083
:103100000882002010BDDFF878080068006880475A
:1031100020680A3010BD10B5DFF8604820B921687A
:1031200001200882002010BDDFF854080068806884
:10313000804720680C3010BD10B5DFF84048DFF83C
:10314000482820681268C1784079926990472168C0
:103150008A7A9AB1002804BF087900280ED18878AD
:1031600060B9DFF81C080068C068804720684179B2
:10317000C1722068C1780173002010BD022010BD0B
:1031800010B5DFF8F817096818B902200882002086
:1031900010BDDFF8F847002020807F220878104219
:1031A00015D1487A0021820648BF41F00201217002
:1031B0004006217854BF01F0FE0041F0010020706C
:1031C000DFF8BC07006800698047204610BD00F0AA
:1031D0007F02012AF9D000F07F000228D7D1487978
:1031E000DFF8AC2700F00F01000652F8210007D5E8
:1031F00000F030001028E3D1002040F00100DEE7AD
:1032000000F44050B0F5805FDAD1002040F00100BA
:10321000D5E7F0B5DFF86407006881B0017811F0F8
:103220007F0106D1417A01F0DF014172002001B037
:10323000F0BD022901BF418800290179002951D13F
:103240004179DFF84C4721F080050A0654F8252023
:10325000DFF830371B784CBF02F0300202F44052E6
:103260009D423FD2002A1CBF807A00283AD008062F
:1032700054F825000BD500F0300010282AD128463C
:1032800000F039FC3021284600F0C5FB22E000F4B4
:103290004050B0F5805F1DD148F280064BF68F7725
:1032A0006DB9DFF8F00690F82C10002000F06AFCF1
:1032B0002068384080F44050304320600AE02846BF
:1032C00000F007FC54F82500384080F440503043AB
:1032D00044F82500DFF8A806006840698047002010
:1032E00001B0F0BD022001B0F0BD30B5DFF88C06B2
:1032F000DFF89C160268DFF88C5681B0537923F012
:1033000080001C0651F820402D784CBF04F030049A
:1033100004F44054A84206D2558825B9002C1CBF9D
:10332000927A002A02D1022001B030BD1B0651F86A
:10333000203048F2800205D548F6BF74234083F060
:10334000100304E04BF68F74234083F480531A4338
:1033500041F82020DFF828060068806980470020B7
:1033600001B030BDDFF814261268538A20B988886E
:10337000C01A1082002070470868181870472DE99D
:10338000F041DFF8F845206800F110063188002987
:1033900004BF007A04281FD1DFF8FC15DFF8FC0514
:1033A0000A78012A11D1DFF8F835DFF8F8551B68E3
:1033B00000229BB245F81320042530220280002011
:1033C000087020680572BDE8F08110210180072592
:1033D00020680572BDE8F081B7888F4205D30425C7
:1033E000B94288BF39460F4600E00225B168384629
:1033F00088478046002000F0A8FB01463A46404638
:1034000000F00AFC3946002000F0B3FB3088DFF8FA
:103410008C15C01B30807088381870803020088070
:103420004FF44050DFF88015088020680572BDE831
:10343000F08130B5DFF84445206881B001784578E7
:103440007F22114250D1092D23D1DFF83825C178D0
:1034500052788A425ED38278002A04BF8288002A8A
:1034600058D18172DFF81805006840688047DFF89E
:103470003025DFF830351268002192B243F812107F
:103480000620DFF81825302111802168087201B06C
:1034900030BD052D0BD1C178802947DA817800290C
:1034A00001BF81880029807A00283FD1DFE7032D02
:1034B0000FD1C178012904BF818800292AD1417A1E
:1034C00041F020014172DFF8B8040068C06980470C
:1034D000CDE7012D04BFC17801291BD18188C9B96D
:1034E000407A80060DD415E001F07F00012804D158
:1034F0000B2D0FD1FFF720FE0AE002280AD1012D83
:1035000002D1FFF786FE03E0032D03D1FFF7EDFEA6
:103510000028ACD0DFF8701409684969284688474C
:10352000032808BF0920B0D00028A0D021680820B7
:10353000087201B030BD10B5DFF84044206882B099
:103540004178062919D101787F22114235D180783E
:10355000012804D1DFF830040068C16980E0022846
:1035600004D1DFF824040068016A79E0032824D13B
:10357000DFF814040068416A72E000294AD14188EA
:10358000002904BFC188022917D10179A9B901789E
:103590007F22114204BF8288002A38D001F07F02C6
:1035A000012A18D1DFF8E0234079126892690021DE
:1035B000904710B92068807A48BBDFF8CC132068A8
:1035C0000968407809698847032852D12168092091
:1035D000087202B010BD01F07F010229EDD14079DF
:1035E000DFF8AC3300F00F0100F07002000653F872
:1035F0002100DFF890331B784CBF00F0300000F45E
:1036000040509942D9D2002AD7D10028D5D0DFF82E
:103610009C1325E0082906D100787F210842CCD1EF
:10362000DFF88C131CE00A2902BF017801F07F014A
:103630000129C2D1817A0029BFD04188002901BF68
:1036400001790029C1880129B7D1DFF83C234079ED
:1036500012689269002190470028AED1DFF8541318
:103660000800AAD020680022428281610020884799
:10367000002021680B8A1A464FF6FF74A24208BF49
:10368000092004D0022818BF002B03D1082008729B
:1036900002B010BD0878000622D5C8880090009CB2
:1036A0009C4202D20098088211E083420FD2B648B1
:1036B000006890F82C00834238BF002005D392FBAD
:1036C000F0F300FB132010B90120B34A1070AE488C
:1036D000006890F82C00888202B0BDE810404EE6E9
:1036E000032008724FF44050AF49088002B010BD6B
:1036F00030B5AB48B049A14C81B0006880B231F818
:10370000100021680A7A400000F18040092A00F583
:10371000C04014D010F8012B0A7010F8011B226869
:103720005170851C35F8040B00F060FA2168488060
:10373000288800F05BFA21688880A888C88001206A
:10374000216808722068C08810B9FFF772FE01E096
:10375000FFF7F1FE8F4890F82C10002000F012FACD
:103760002068017A082906D18F4A4FF480511180D0
:1037700010218A4A1180007A09280CBF01200020FC
:1037800001B030BD10B57D4C2068017A022918BF08
:10379000042904D1FFF7F3FD2068007A14E006291C
:1037A00011D14178052902BF01787F22114206D14B
:1037B000C07800F097F872480068006A8047724845
:1037C000006880688047082021680872714890F876
:1037D0002C10002000F0D6F92068017A082906D1C3
:1037E000714A4FF48051118010216C4A1180007A87
:1037F000092801D1012010BD002010BDF0B55F4C9B
:10380000206881B0017A022918BF04294FD003290A
:1038100018BF052945D100F11005A9682E880800B8
:1038200018BF002E14D0A888864288BF06463046AE
:10383000884707462888801B288068883018688059
:10384000002000F08CF901463246384600F028FA94
:10385000288850B154494FF440500880002100207E
:1038600000F087F94D49302008802888AA8821680F
:10387000904228BF032001D220B1052008722068A1
:10388000007A15E00620087200204549454A09687B
:1038900089B242F811003020404908802068007A3F
:1038A00006E0072903D138480068C068804708202F
:1038B00021680872374890F82C10002000F062F957
:1038C0002068017A082906D1374A4FF480511180C7
:1038D0001021324A1180007A09280CBF01200020F3
:1038E00001B0F0BDF0B427490D780024002D3DD083
:1038F00015F0030648F2800148F68F72244B0DD074
:10390000E7B253F827C002EA0C0C47EA0C0C41EA74
:103910000C0C641C43F827C0761EF1D1AD0825D0ED
:10392000E6B253F82670174037430F4343F826702A
:10393000641CE6B253F82670174037430F4343F830
:103940002670641CE6B253F82670174037430F43C5
:1039500043F82670641CE6B253F8267017403743CC
:103960000F43641C43F826706D1ED9D1134940F0F3
:1039700080000860F0BC7047000000008C0E002042
:10398000940E00207C010020900E0020AC0E002040
:10399000005C004094000020C20E0020B60E002003
:1039A000505C004004600040B40E002081310008EB
:1039B000F530000817310008086000404C5C0040FA
:1039C000704710B450F8041B81B102681218001D32
:1039D00050F8043BDC0744BFA9F10104E31852F896
:1039E000044B43F8044B091FF9D1EBE710BC7047B7
:1039F0004FF6F8710840DFF8DC1108607047DFF817
:103A0000D82152F8203048F68F1C0CEA03031943E2
:103A100042F820107047DFF8C02152F8203048F6F5
:103A2000BF7C0CEA03035FEAC16C48BF83F010035C
:103A3000890648BF83F0200343F4004141F0800130
:103A400042F820107047DFF8902152F820304BF6F2
:103A50008F7C0CEA03035FEAC14C48BF83F48053B8
:103A6000890448BF83F4005343F4004141F08001CE
:103A700042F820107047DFF8601151F8202048F616
:103A8000BF731A4082F0300242F4004242F08002DA
:103A900041F820207047DFF8401151F820204BF604
:103AA0008F731A4082F4405242F4004242F0800286
:103AB00041F820207047DFF8201151F8202048F607
:103AC0008F631A4042F4004242F0800241F8202005
:103AD0007047DFF8041151F8202052040AD551F83C
:103AE000202048F68F731A4042F4404242F0800290
:103AF00041F820207047DFF8E01051F820205206EE
:103B00000AD551F8202048F68F731A4042F400423B
:103B100042F0C00241F820207047DFF8B820126858
:103B200092B202EBC000DFF8B4204908490042F825
:103B300010107047274A126892B202EBC000284A60
:103B40004908490042F8101070472249096889B2B3
:103B500001EBC000214951F8100080B270471D49A7
:103B6000096889B201EBC0001D4951F8100080B20C
:103B70007047184A126892B202EBC000194A42F824
:103B800010107047134A126892B202EBC000164A36
:103B90003F2902EB40000ADB4A091F23194208BFF4
:103BA000521E1204910941F40041016070474A0815
:103BB000C90748BF521C12049109016070470549AA
:103BC000096889B201EBC000074951F8100080056F
:103BD000800D7047505C0040005C00400060004079
:103BE00008600040046000400C6000400106090CC1
:103BF00041EA1020704750F8041B61B150F8042BC3
:103C0000D30744BFA9F101039A180023091F42F802
:103C1000043BFAD1EFE77047490001F18043511CA2
:103C2000491003F5C04300D1704730B411F00302CE
:103C300000F00B8010F8014B10F8015B44EA0524FA
:103C400023F8024B9B1C521EF4D1890800F02680F9
:103C500010F8012B10F8014B42EA042223F8022B42
:103C60009A1C10F8013B10F8014B43EA042322F898
:103C7000023B921C10F8013B10F8014B43EA04236D
:103C800022F8023B921C10F8013B10F8014B43EA6A
:103C9000042322F8023B931C491ED9D130BC704743
:103CA0004900521C01F18041521001F5C0411DD064
:103CB00012F0030300F0068051F804CB20F802CB89
:103CC0005B1EF9D1920811D051F8043B20F8023B59
:103CD000521E51F8043B20F8023B51F8043B20F8F7
:103CE000023B51F8043B20F8023BEDD170470268DB
:103CF000531C03601170704710B500F086FBDFF8AD
:103D0000E04504EB80004069A06500F07EFB04EB19
:103D10008000C069E06500F078FB0FF2E85151F8CF
:103D20002000206600F071FB04EB8000406A6066B2
:103D300000F06BFB0FF2D45151F82000A06600F0A8
:103D400064FB04EB8000C06AE06600F05EFB0FF2EB
:103D5000C45151F82000206700F057FB04EB4000ED
:103D6000808EA08100F051FB00198079207000F056
:103D70004CFB04EB8000806B606700F046FB0FF2A9
:103D80009C5151F82000A06700F03FFB04EB40007D
:103D9000B0F84000E08100F038FB0019007A607054
:103DA00000F033FB04EB8000406CE06700F02DFB7B
:103DB0000FF2705151F82000C4F8800000F025FB8C
:103DC00004EB4000B0F84C00208200F01EFB00190C
:103DD000807AA07000F019FB0FF2585151F82000C2
:103DE000C4F8840000F011FB04EB8000006DC4F8FF
:103DF000880000F00AFB0FF2345151F82000C4F89B
:103E00008C0000F002FB0FF2345151F82000C4F88E
:103E1000900000F0FAFA0FF22C51405CE07000F0D4
:103E2000F4FA0FF22451405C207100F0EEFA0FF228
:103E30001C51405C607100F0E8FA18B100F0E5FA3E
:103E400001280DD101214FF4804000F0F7FAD4F899
:103E50008400012140F0060000F0DEFA002010BDD1
:103E60004FF0FF3010BDDFF87804D0F88C10D0F898
:103E7000880089B200F022BB30B58BB00446FFF752
:103E80003BFF10F1010F00F0BA80DFF854542A789C
:103E9000A989E86E00F022FB6A78E989686F00F072
:103EA0001DFBAA78298AE86F00F018FBA96E686EDE
:103EB000012289B200F009FBA86E009000A9012040
:103EC0008DF8040000208DF80500ADF80600686E3E
:103ED00000F0C4FAA96E686E002289B200F0F5FA0B
:103EE000D5F88000009000A902208DF8040003207E
:103EF0008DF8050000208DF8060001208DF80700E0
:103F0000E86F00F0ABFA02208DF8070000A9A86F57
:103F10000090686F00F0A2FA01208DF8070000A958
:103F2000286F0090E86E00F099FA296E0091012048
:103F30008DF8040001220020ADF8060089B20320AC
:103F40008DF80500E86D00F0C0FAE86D00A900F0FA
:103F500085FAD5F88C00009000A900208DF80400A7
:103F600002208DF80700D5F8880000F077FA0020CD
:103F7000ADF8140005A94FF48270ADF816000020CA
:103F80000690ADF81C004FF40070ADF81E0008203C
:103F9000ADF820000020ADF822000720ADF8240085
:103FA000A86D00F0AFFAA86D012100F0C7FA012C4E
:103FB00024D12979E87800F0E1FAD5F8900003904F
:103FC00000208DF8100008208DF8110001208DF8D8
:103FD000120003A800F0E8FAD5F8900000F018FBF2
:103FE00068798DF8080000208DF809008DF80A0026
:103FF00001208DF80B0002A800F023FB00200BB07D
:1040000030BD10B5DFF8D842A16E606E002289B2D3
:1040100000F05BFA052000F073FBA16E606E0122D8
:1040200089B200F052FABDE81040052000F068BBEC
:1040300000B5DFF8AC02D0F88C10D0F8880081B061
:1040400089B200F03BFA012818BF002001B000BD82
:10405000DFF88C0290F90500012100F01F02914069
:10406000DFF88022400942F820107047DFF8700224
:1040700090F90500012100F01F029140DFF868224D
:10408000400942F820107047DFF85402D0F8900041
:1040900000F0BEBA2DE9F0478A4684B00FF24C21F9
:1040A00080460CC902A800260CC072B68C4F396E2F
:1040B000F86D002289B200F008FA02AC0DF1000997
:1040C00005252178B86D00F045FAB86D022100F0A1
:1040D00043FA0028F9D0B86D012100F03DFA00281C
:1040E000F9D0B86D00F034FA09F8010B641C6D1EAC
:1040F000E7D19DF80000022824D19DF804009DF826
:10410000031051EA00241DD0A245B8BF5446012C2B
:1041100018DBB86DFF2100F01DFAB86D022100F028
:104120001BFA0028F9D0B86D012100F015FA00281B
:10413000F9D0B86D00F00CFA06F80800761CF6B25B
:10414000A642E6DB396EF86D012289B200F0BDF9B6
:1041500062B6304604B0BDE8F0872DE9F34F87B072
:1041600014461D460FF28C115D4F0CC905A80FF2C5
:104170008C110CC00CC903A84FF001080CC097F9B2
:104180000500584A00F01F0108FA01F1400942F801
:1041900020104FF00009D7F88C0000908DF80480B3
:1041A00003208DF805008DF8069002208DF8070099
:1041B00000A9D7F8880000F051F9D7F88C10D7F88B
:1041C0008800012289B200F080F9CDF8089003E060
:1041D00000BF0298401C02900298B0F5D27FF7DB36
:1041E000396EF86D002289B200F06FF905AE0DF15D
:1041F0000C0A4FF0050B3178B86D00F0ABF9B86DD3
:10420000022100F0A9F90028F9D0B86D012100F0D1
:10421000A3F90028F9D0B86D00F09AF90AF8010B5B
:10422000761CBBF1010BE6D1D7F888008DF804901D
:1042300000A900F013F99DF80C00022838D19DF870
:104240000D002919884230DBB4B1079E3178B86D72
:1042500000F080F9B86D022100F07EF90028F9D055
:10426000B86D012100F078F90028F9D0B86D00F0A0
:104270006FF9761C641EE9D1E5B1089C2178B86D10
:1042800000F068F9B86D022100F066F90028F9D055
:10429000B86D012100F060F90028F9D0B86D00F088
:1042A00057F9641C6D1E05D0E8E76FF0010901E0C5
:1042B0004FF0FF39396EF86D012289B200F005F92F
:1042C00097F90500084A00F01F0108FA01F14009BA
:1042D00042F82010484609B0BDE8F08F0000000009
:1042E0000000002080E100E000E100E00B000000A1
:1042F000000000000A00000000000000AA0000000A
:10430000000000000010000000100000002000006D
:10431000002000000080000000800000004000003D
:104320000040000000200000002000000004000009
:10433000000400000400000002000000000400006F
:1043400000040000020100000A0A00002828000002
:1043500010B584B00121082000F05EF801208DF82E
:10436000080000208DF80B0003208DF809000020C4
:104370008DF80A000420019001A9254C204600F088
:104380006DF8A08A40F00400A0825FF000008DF874
:1043900000009DF8000008BB9DF80000401C8DF84F
:1043A00000009DF80000C8B99DF80000401C8DF881
:1043B00000009DF8000088B99DF80000401C8DF8B1
:1043C00000009DF80000002808D19DF80000401C66
:1043D0008DF800009DF800000028DDD0208A0D49EE
:1043E0000006800E00F0010080F00100087001A9B5
:1043F00000208DF80800204600F030F8A08A4FF623
:10440000FB710840A08204B010BD024800787047DC
:10441000000C0240C10E00200D4A0029116814BF93
:10442000084321EA0000106070470A4A0029116819
:1044300014BF084321EA000010607047064A0029B3
:10444000116814BF084321EA0000106070470000A3
:104450001C3802402038024024380240F0B40022C8
:10446000002301240D6894402540A54220D1066810
:104470000F7903259D40ED432E409F403E4306604B
:104480000E79012E18BF022E0CD186684F792E406E
:104490009F403E438660868826EA04048E799640D3
:1044A00034438480C4682C40CD799D402C43C46043
:1044B000521C9B1C102AD4D3F0BC7047008A0022E7
:1044C000084218BF0122104670470AB101837047A5
:1044D00041837047828A514081827047CB0800EB4C
:1044E000830001F007018900036A4FF00F0C0CFAFA
:1044F00001FC23EA0C03036202FA01F1036A194387
:104500000162704702880B8802F441521A434B88BB
:104510001A438B881A43CB881A430B891A434B8959
:104520001A438B891A43CB891A4302804FF2FF73D7
:10453000828B1A408283098A018270470029018890
:1045400012BF41F040014FF6BF7211400180704729
:10455000808970478181704700890022084218BF16
:1045600001221046704700000D490028086812BF5C
:1045700040F00100400840000860704730B401F08E
:10458000030221F00301074B9200CC580F25954000
:10459000AC43CC509040CC582043C85030BC7047FE
:1045A000040001400800014030B401688279CB4327
:1045B0001F4932B30A4614682340136053680468E5
:1045C000A34353600379CC18236805682B43236009
:1045D00093680468A3439360D3680468A343D360DB
:1045E00043790568102B08D1916829439160D168FF
:1045F00000680843D06030BC7047CC18206828435E
:1046000003E000790C1820681840206030BC704727
:10461000084908607047074A12680021024218BF23
:1046200001210846704703490860704700000000F8
:1046300000040140140401401C4908431C4908605F
:104640007047F0B40378C4781A460121F4B1184BCE
:104650001B68447803F4E063C3F5E0631B0AC3F10D
:104660000405AC4085780F2626FA03F707EA050310
:104670002343104C1B011355007800F01F0291409A
:104680000D4A400942F82010F0BC704703F01F00AB
:1046900001FA00F00949520941F82200F0BC7047C4
:1046A000074A114008430749086070470000FA05AF
:1046B0000CED00E000E400E000E100E080E100E05B
:1046C00080FFFF1F08ED00E011480168491C0160F0
:1046D000704710B5EFF3108472B6042000F01AF89A
:1046E00047F6FF4000F020F8012000F020F80120FC
:1046F00000F030F884F3108810BD0548006870475A
:1047000003490A680B689B1A8342FBD37047000079
:10471000A00E00201649042808680CBF40F00400D1
:1047200020F00400086070471249086070470128B3
:104730000F4904D1086840F001000860704710F18B
:10474000020F04D10868400840000860704700204C
:104750008860704706490028086814BF40F00200CE
:1047600020F00200086070470348006870470000AE
:1047700010E000E014E000E018E000E02DE9F04F68
:1047800093B0804602AE002092461D460291B06171
:104790000DF130090AE01AF8011B0298C047029097
:1047A000002800F0AA81B069401CB0619AF80000AE
:1047B00008B9B069A3E12528EDD10020F06030618F
:1047C000706101E040F001001AF8011F2029F9D0C2
:1047D00023290DD02B2904D02D2906D030290AD029
:1047E0000CE040F0020080B2EEE740F00400FAE78F
:1047F00040F00800F7E740F01000F4E72A290FD155
:104800002968296051F8042B2960002A326204D5F6
:10481000514240F00400316280B20AF1010A15E011
:10482000002131620CE0316A6FF00043994205D0FB
:1048300001EB810302EB4301303931620AF1010AD5
:104840009AF80020A2F130010A29ECD39AF800105E
:104850002E2903D04FF0FF31F16122E01AF8011F39
:104860002A2908D1296829600AF1010A51F8042B84
:104870002960F26115E00021F1610CE0F1696FF04F
:104880000043994205D001EB810302EB430130392B
:10489000F1610AF1010A9AF80020A2F130010A2917
:1048A000ECD3B0840FF2A4309AF8001000F0D2F9E3
:1048B00008B11AF8010B8DF82E009DF82E0068281B
:1048C00004BF9AF80000682804D162208DF82E00F9
:1048D0000AF1010A0CA8B0601AF8014B252C13D07C
:1048E000582C38D0632C00F09080642C18BF692CB1
:1048F00065D06F2C2FD0702C23D0732C0AD0752C40
:1049000018BF782C27D08AE00120F06025208DF890
:1049100030008FE02868286050F8044B28607460ED
:10492000F769002F04D5204600F0A0F9074606E0FD
:104930003A460021204600F0B5F900B1071B376167
:1049400078E02868286050F8041B286001910CA8C2
:104950007060782155E09DF82E206C2A0DD0712AC8
:1049600018BF6A2A09D12868C01D20F007032B60F0
:10497000D3E9000108332B6004E02968296051F86D
:10498000040B2960682A019002D101A8008803E085
:10499000622A02D101A80078019096F8240000074D
:1049A0002AD5019840B344F02000782824D1302043
:1049B0008DF8300089F801400220F0601CE09DF87D
:1049C0002E00294600F09EF80028019004D5F068DA
:1049D000411CF1602D210DE0B08C810704D5F068F9
:1049E000411CF1602B2105E0C00705D5F068411C92
:1049F000F160202100F80910F1680CA80818706017
:104A0000214601A800F0A4F814E00120F060286815
:104A1000286050F8041B28608DF830100AE001204F
:104A2000F06025208DF8300024B1F068411CF16061
:104A300000F80940306AF168401A7169401A31691A
:104A4000441A96F8240040070FD420208DF8000067
:104A5000002708E0012300AA01A9404600F0DFF882
:104A600000284AD17F1CA742F4DBF7680DF1300B18
:104A70000AE01BF8011B0298C047029000283CD0B6
:104A8000B069401CB0617F1E002FF2D130208DF83C
:104A900000004FF0000B776908E0012300AA01A98C
:104AA000404600F0BCF840BB0BF1010BBB45F4DB0A
:104AB0003769D6F804B009E01BF8011B0298C0471B
:104AC0000290D0B1B069401CB0617F1E002FF3D1BD
:104AD00096F8240040077FF569AE20208DF800008D
:104AE00000E07F1CA742BFF661AE012300AA01A926
:104AF000404600F094F80028F3D04FF0FF3013B098
:104B0000BDE8F08F622815D068280CD06C2818BF3B
:104B1000742816D07A2814D10A680A6052F8040B57
:104B20000A60002170470A680A6052F8040B0A60A4
:104B300000B20BE00A680A6052F8040B0A6040B247
:104B400004E00A680A6052F8040B0A60C117704753
:104B5000F0B4C2686F2908BF082405D041F02003D3
:104B6000782B14BF0A24102418230668642918BF60
:104B70006929374602D1002E48BF7F425FB9056AD6
:104B80004DB9082C27D190F82810090723D53021DA
:104B90001723D1751FE0B7FBF4F604FB1677303707
:104BA0005D1EFFB23A2FA4BFA1F1510C6744AF5470
:104BB0002B46370003D085689E18B542EBD3082CEE
:104BC00009D190F82810090705D5995C302902D041
:104BD0005B1E30219954C3F1180141619A1882601B
:104BE000026A914208DA511A81614FF6EF72018D23
:104BF00011400185F0BC7047002A0ED590F828209E
:104C000002F01402102A08D1426A0369D21A836999
:104C1000D21A531A012BA8BF8361F0BC7047F8B5B4
:104C200004460D4616461F46002004E0E869401C75
:104C3000E8617F1E002047B116F8011B6868A04795
:104C400068600028F2D14FF0FF30F2BD686C747AD2
:104C50004C0000000278C9B28A421AB11CBF10F899
:104C6000012FF9E718BF00207047000000F1010391
:104C7000810704D010F8011B89B18107FAD10268BD
:104C8000B2F10131914311F0803F04BF50F8042F7D
:104C9000F6E710F8011B11B110F8011BFBE7C01A71
:104CA00070470000C9B2830706D0521E22D310F805
:104CB000013B9942F7D11FE0083A13D302F10402F5
:104CC00041EA012141EA014150F8043B121F21BF92
:104CD0004B40A3F1013C2CEA030C1CF0803FF3D0C5
:104CE000C9B2001F083210F8013B521E28BF91EADA
:104CF000030FF8D818BF0120401E7047F0B58BB0E5
:104D00004FF440514FF00060FFF7CAFCFFF720FB63
:104D100000F014FA00F027FA002000F071FB0020E8
:104D200000F07EFB032000F07BFB042000F078FB0A
:104D30004FF47A71022000F011FC022000F070FCA8
:104D40006421042000F00AFC042000F069FC41F218
:104D50008831062000F002FC062000F061FC0120F2
:104D600000F0ECFC012000F051FB012000F04BFBB7
:104D70004FF4C060FFF760FCFFF7ABFC4FF4FA7034
:104D8000FFF7BEFC8D4800F0E7FC64248AA52846A6
:104D900000F0F4FC4620FFF7B3FC641EF7D100F0EE
:104DA000FFFC0120FFF768F8FFF72BF90FF21C2139
:104DB0000CC900A806210CC000AA002000F08AFE41
:104DC00018B10FF2102000F0D9FC00F0D8FE18B195
:104DD0000FF21C2000F0D2FC00AB0DF1020201A981
:104DE000012000F0C2FF18B10FF2182000F0C6FC3D
:104DF000FFF70BFB01460FF2202000F0BFFC01F093
:104E00004BF800280CBF0FF240200FF25C2000F09E
:104E1000B5FC0421012000F08EFE0FF298240FF261
:104E200078250FF26426664F00F042FD786880070F
:104E3000FAD5B6E80E1007A8103EA0E80E102846D6
:104E400000F09CFC00200690059004900390A022A6
:104E500007A8029000230D20019011460020009029
:104E600000F0B9FF0146204600F088FC786820F089
:104E700002007860D8E730B50446514881B04268F6
:104E800042F00102426001800320012100F010FB8A
:104E90000FF2282000F072FC0FF2382561792846C5
:104EA00000F06CFC2179284600F068FCE178284687
:104EB00000F064FCA178284600F060FC6178284688
:104EC00000F05CFC21780FF2142001B0BDE8304006
:104ED00000F054BC10B50021032000F0E9FA384C72
:104EE000606820F0010060600FF2F81000F046FCEE
:104EF000606840F002006060606820F0040060605C
:104F0000606820F480706060606820F40070606009
:104F1000606820F480606060606820F40060606019
:104F200010BD411C0078042800D0704710B50878E7
:104F3000052804D03E2805D0FF280ED010BDBDE8BE
:104F40001040C7E7881C0178012933D1401CBDE817
:104F50001040B0F80110401D8DE7881C0188B1F5A4
:104F6000006F1BD040F60142914223D1841C21796D
:104F70006088621D00F0E0FF01211248FFF7AAFAE5
:104F8000114960880988491C884204BF6079452816
:104F900010D1BDE81040022000F026BBB0F8090097
:104FA000BDE81040002814BF0FF248100FF268103F
:104FB00000F0E4BB10BD00002E00000001630008FB
:104FC0005C010020000802409C0E0020AA0000E1C5
:104FD0008002000053657474696E672042445F412B
:104FE000444452206661696C65642E0A000000002A
:104FF000474154545F496E6974206661696C656409
:105000002E0A00004741505F496E6974206661694D
:105010006C65642E0A0000005345525645523A20F2
:10502000424C4520537461636B20496E6974696119
:105030006C697A65642028706C6174666F726D3A71
:10504000202564290A0D0000536572766963652086
:105050006164646564207375636365737366756CFE
:105060006C792E0D0A0000004572726F722077680D
:10507000696C6520616464696E6720736572766926
:1050800063652E0D0A00000009426C75654E52479B
:105090005F4368617400000047656E6572616C2053
:1050A000446973636F76657261626C65204D6F64ED
:1050B0006520000025640A0D00000000436F6E6E3D
:1050C000656374656420746F206465766963653A0E
:1050D00000000000253032582D00000025303258E5
:1050E0000A0D0000446973636F6E6E6563746564D6
:1050F0000A0D00003E20436F6E6E656374696F6E2B
:1051000020706172616D65746572732072656A6585
:10511000637465642E0A00003E20436F6E6E656303
:1051200074696F6E20706172616D65746572732051
:1051300061636365707465642E0A000000B581B018
:1051400001213F20FFF768F901210120FFF76DF9E8
:10515000DFF8740203210160DFF870128160002122
:10516000416001B000BD70B582B003208DF804002D
:105170004FF6FF7400208DF8070000944FF0FF30C9
:10518000DFF84C62DFF84C52C6F80004C5F80004A2
:10519000C5F8000800A940F2FF700090DFF838025F
:1051A000FFF75CF94FF6E770009000A9DFF82C02DA
:1051B000FFF754F9009400A93046FFF74FF9009427
:1051C00000A92846FFF74AF902B070BD01214FF44B
:1051D0000000FFF733B900B581B04FF4C060FFF7AE
:1051E0002BFA14208DF8000001208DF8010000201A
:1051F0008DF8020001208DF8030000A8FFF721FAC6
:1052000001B000BD00B10120FFF7AEB900B581B01B
:105210000121734800F092FF72490120087001B02B
:1052200000BD71480178012900D1704710B5D0F850
:10523000D817B1F5FA6F04BF0021C0F8D817D0F81D
:10524000D417D0F8D8278A4202D10021017010BDAE
:10525000D0F8D827914239BFD0F8D817C1F5FA61F4
:10526000D0F8D827891A4129D0F8D83707D3D0F8F1
:10527000D82740324024C0F8D827403906E0D0F87B
:10528000D8270C468918C0F8D8170021C0F8DC17B9
:105290009BB2012101701818A2B2C021001DFEF7B7
:1052A000BBFCA1B20120FEF764FCBDE81040012068
:1052B000FEF7E1BB4C49D1F8D42753181871501CA4
:1052C000B0F5FA6F08BF0020C1F8D407704747480F
:1052D000416802684069821800D1704730B4444880
:1052E0000023841C150F0A2D34BF30353735257047
:1052F0001201002565705B1C150F0A2D34BF303577
:105300003735A57012010025E5705B1C241D082BA4
:10531000E8DB0A0F0A2A34BF3032373282740901BF
:105320000A0F0A2A34BF30323732027509010A0FD8
:105330000A2A34BF303237320901090F0A29C574ED
:105340004575C57534BF3031373145768275017684
:1053500030BC704730B42449D1F8D4374FF6FF72CF
:10536000D1F8D847641EA34206D0B3F5FA6F04BF44
:10537000D1F8D847002C03D11446621E012CEFDA75
:105380009AB90FF270020DE0D1F8D4375D185B1CAA
:105390002C71C1F8D437B3F5FA6F04BF0023C1F8FC
:1053A000D437521C1478002CEED1D1F8D4275318DE
:1053B000521C1871C1F8D427B2F5FA6F04BF00224D
:1053C000C1F8D42730BC70472838024001000010D3
:1053D00000080240000C02400000024000040240AD
:1053E00000040040C00E0020840100205000F81F7F
:1053F000080100200A4F564552464C4F570A0000FC
:105400000449086070470449086070470349086010
:105410007047000010000E4228000E4224000E4289
:1054200030B5042883B004460ED8DFE800F0030549
:1054300007090B00012006E0022004E0042002E03E
:10544000102000E02020009001208DF804000320AF
:10545000022C8DF8050005D100A93D48FEF7FEFF9E
:1054600003B030BD3B4D00A92846FEF7F7FF042CE2
:105470001BD8DFE804F016120B070300A88A40F0DF
:10548000200011E0A88A40F010000DE03048818A29
:1054900041F00401818203B030BDA88A40F00200CF
:1054A00002E0A88A40F00100A88203B030BD0000ED
:1054B000012927D1042849D8DFE800F003090F1893
:1054C0001E00254801884FF6FE7211403DE022483B
:1054D00001884FF6FD72114037E01F48B0F8001404
:1054E0004FF6FB721140A0F8001470471A4801886B
:1054F0004FF6EF72114028E0174801884FF6DF722F
:10550000114022E011BB042820D8DFE800F0030896
:105510000D151A001048018841F0010115E00E48F0
:10552000018841F0020110E00B48B0F8001441F08E
:105530000401A0F8001470470748018841F01001E9
:1055400003E00548018841F0200101807047000018
:10555000000C0240000802401408024030B5801ED2
:10556000052883B00C462AD8DFE800F003290A1387
:105570001C2201210120FEF761FF4FF080451EE053
:1055800001210420FEF75AFF4FF4006000F180452E
:1055900015E001210820FEF751FF4FF4406000F1B3
:1055A00080450CE001211020FEF748FF5E4D06E02B
:1055B00001212020FEF742FF5B4800F5806549F697
:1055C0004040ADF8000001940020ADF80200ADF8B5
:1055D000080000A9284600F06FFD0122012128469D
:1055E00000F0A4FD03B030BD801E052816D8DFE80A
:1055F00000F003150B150D0F4FF08041002048629D
:1056000001214FF0804007E0484802E0464800E0B2
:10561000474800214162012100F07EBD7047000033
:1056200000B5801E052881B00FD8DFE800F0030E1A
:105630000507090B1C2006E01E2004E02E2002E0D6
:105640002B2000E02C208DF8000002208DF80100B6
:1056500001208DF802008DF8030000A8FEF7F1FF8D
:1056600001B000BD00B581B001214FF0804000F0D5
:1056700068FDE0B101214FF0804000F06CFD002199
:105680004FF0804000F048FD284800214162012190
:1056900000F042FD244800214162012100F03CFD60
:1056A00001B05DF804EB20212248FEF713BF01B0E2
:1056B00000BD10B51D4C0121204600F042FD48B14F
:1056C0000121204600F047FDBDE810402021194887
:1056D000FEF700BF10BD10B5134C0121204600F0AD
:1056E00030FD68B10121204600F035FD00210F4852
:1056F00000F012FD2046BDE81040002100F00CBD76
:1057000010BD10B50A4C0121204600F01AFD50B121
:105710000121204600F01FFD0021204600F0FCFC86
:1057200005490120086010BD00100040000800403D
:105730000014004000080240A40E0020DFF81410FE
:105740000028086814BF40F0080020F00800086036
:1057500070470000003C024010B50446FFF736FDDC
:10576000FFF739FD00F0FAFC0348046010BDFFF7B5
:10577000A1BD014A12681047A80E00200EB400B562
:1057800082B003A90091024600AB0121034878448E
:105790000A30FEF7F3FF06BC5DF810FBCD150000E4
:1057A00010B5DFF8204304F1100000F0E7FC04F12D
:1057B000180000F0E3FC04F1200104F1100000F0F7
:1057C000EEFC04F1A80104F1100000F0E8FC04F57F
:1057D000987104F1100000F0E2FC04F5DC7104F1B2
:1057E000100000F0DCFC04F5107104F11000BDE8BD
:1057F000104000F0D4BC70B5DFF8C84200F10803D7
:10580000A360002163782BB9A38003E0042B4ED161
:1058100003236370A388802B49DAA3885D1CA580CD
:10582000A56866785B5D002EF0D0032E08BF0623C6
:10583000EFD0042E08BF0523EBD0052E08BF0723A9
:10584000E7D0072E08BF0823E3D0082E04D1B5F80F
:10585000032000210923DCE7062E03D11A4600218C
:105860000923D6E7092ED5D1491C89B292B29142BB
:10587000D0D30021617000F108014A1C0978042985
:1058800008D111780E2918BF0F2903D0014604F161
:10589000180002E0014604F1100000F080FCE0680E
:1058A00028B1A188A068E268BDE87040104770BDCB
:1058B00010B5A2B000200090FEF7CAFBDFF804424A
:1058C00004F1180000F05DFCB8B900A904F118005B
:1058D00000F06CFCFEF7CAFB00980830FFF721FBD4
:1058E000FEF7B6FB009904F1100000F058FC04F13B
:1058F000180000F046FC0028E7D0207848B90DE0F9
:10590000802101A8FEF7C6FBC0B210B101A8FFF7C5
:1059100008FBFEF78DFB0028F2D12070FEF7A6FBF6
:1059200022B010BD10B582B000200090FEF7ACFB95
:10593000DFF8904106E0009904F1100000F028FC27
:10594000FEF7A2FBFEF78FFAC8B104F1100000F0D9
:1059500018FC80B900A904F1100000F027FC0098A1
:1059600080210830FEF796FBC0B20028E3D00098F3
:10597000FFF741FFE4E701202070FEF785FB02B04E
:1059800010BD00B581B0FEF763FBDFF83C110120CC
:10599000887001B000BD2DE9F047044684B06088EE
:1059A000DFF82061884680052188800D40EA812546
:1059B000DFF8180100680A21B0FBF1F70020B07091
:1059C0000322DFF80C01F06060882188D4F8089089
:1059D000D4F80CA08DF806A08005800D40EA812047
:1059E000ADF8040001A901208DF800000DF10100BF
:1059F00000F0EBFB5FFA8AF30422494600A800F0AE
:105A0000F5FBB8F1000F37D107B90127394602A8D5
:105A100000F00AFC06E0087800284AD10020B070A7
:105A2000FEF724FB02A800F006FC002841D1B07864
:105A30000028F7D0B068024611780429EED1C11CC5
:105A4000B0885278C01E0E2A1ED00F2A04D0102A09
:105A50002FD03E2A20D0E1E74A88ADB2AA42DDD15C
:105A600062680F2AD7D162699042C8BF1046606150
:105A70000246206900F0A9FB0020F060FEF7F6FA6C
:105A8000002004B0BDE8F087B1F80120ADB2AA4211
:105A9000C4D1C91CC01EE6E70A7863689A42BDD12A
:105AA0006269401E9042C8BF104660610246491CB0
:105AB000DFE70020F060FEF7D9FA4FF0FF3004B0C6
:105AC000BDE8F08764090020640900209C6D00088F
:105AD0008359000810B50C461146A21C812AA8B0B3
:105AE000A8BF422025DA8DF81C008DF81D40224603
:105AF0000DF11E0000F069FB1822002101A800F042
:105B00006AFB3F20ADF8040000210C20ADF8060030
:105B100007A80390A01CC0B2049000A80590012023
:105B2000069001A8FFF737FF00284CBFFF209DF823
:105B3000000028B010BD00B589B08DF804008DF8C4
:105B400005101822002102A800F045FB3F20ADF807
:105B5000080000210F20ADF80A0001A804900220DF
:105B6000059000A806900120079002A8FFF713FFF8
:105B700000284CBFFF209DF8000009B000BD00B513
:105B800087B01822002101A800F025FB3F20ADF8C6
:105B90000400002140F20110ADF8060000A80590B5
:105BA0000120069001A8FFF7F6FE00284CBFFF2059
:105BB0009DF8000007B000BD70B58CB001288DF8CD
:105BC0001C0014460CBF022610261D4632460DF15D
:105BD0001D0000F0FAFA701C07A9C0B20322445459
:105BE000441CE4B200A86554002100F0F4FA182225
:105BF000002101A800F0EFFA3F20ADF804000021D9
:105C00004FF48170ADF8060007A80390601CC0B285
:105C1000049000A805900320069001A8FFF7BBFEA2
:105C2000002848BFFF2007D49DF8000020B9109934
:105C3000BDF80100088000200CB070BDF1B58EB039
:105C40000D4616461F4602220EA907A800F0BDFA0F
:105C500007AC012DA57031460CBF022510252A4640
:105C60000DF11F0000F0B1FAE81CC0B2411C07554D
:105C7000C9B214980855491C1598C9B20322085591
:105C8000491C1698C9B20855491C1798C9B24D1C31
:105C90000855EDB218982855002100A800F09BFA8D
:105CA0001822002101A800F096FA3F20ADF8040068
:105CB00000214FF48270ADF8060007A80390681C1D
:105CC000C0B2049000A805900320069001A8FFF739
:105CD00062FE002848BFFF2007D49DF8000020B9CD
:105CE0001999BDF80100088000200FB0F0BD33B550
:105CF0001C46A01D8128A7B01546A8BF422032DA55
:105D0000022227A907A800F060FA022228A90DF1B3
:105D10001E0000F05AFA2C998DF820508DF8214081
:105D200022460DF1220000F050FA1822002101A8AD
:105D300000F051FA3F20ADF8040000214FF48370C9
:105D4000ADF8060007A80390A01DC0B2049000A8FB
:105D500005900120069001A8FFF71DFE00284CBF0A
:105D6000FF209DF8000029B030BD70B58AB00C4608
:105D70008DF8080015461E460722002100A800F0F5
:105D80002AFA1822002103A800F025FA3F20ADF8D6
:105D90000C0000218A20ADF80E0002A80590012019
:105DA000069000A807900720089003A8FFF7F3FDCE
:105DB000002848BFFF200CD49DF8000048B9BDF86A
:105DC00001002080BDF803002880BDF80500308068
:105DD00000200AB070BD76B592B0199D1B9C611968
:105DE0000E3129291E4628BF422053D28DF81C00AF
:105DF000022212A90DF11D0000F0E7F9022213A9F9
:105E00000DF11F0000F0E1F918981A998DF82200A1
:105E10008DF821608DF823502A4609A800F0D5F9A5
:105E200005F10800C0B207A9451C4454EDB21C9905
:105E300007A82246281800F0C8F96419E4B207A898
:105E400002221DA9201800F0C0F9A41CE4B207A882
:105E500002221EA9201800F0B8F91822002101A87A
:105E600000F0B9F93F20ADF8040000218320ADF81F
:105E7000060007A80390A01CC0B2049000A80590DB
:105E80000120069001A8FFF786FD00284CBFFF20E7
:105E90009DF8000014B070BD30B593B00FF27811CA
:105EA0003CC90EA80FF280113CC03CC90AA80FF2F1
:105EB00088113CC03CC906A80EA93CC0544C0094B3
:105EC000072301220220FFF777FE68BBA01C059084
:105ED0001423012004900AAA10200390022100201C
:105EE00002900190102000902088FFF7A7FED8B9FB
:105EF000201D059014230120049006AA1020039071
:105F0000022101200290002001900C2000902088A6
:105F1000FFF794FE40B9A28861880FF22C10FFF7BA
:105F20002DFC002013B030BD0FF25C10FFF726FCF3
:105F3000472013B030BD0000F0B50D46344914467B
:105F40008A88521C904285B04DD10FF26010FFF745
:105F500015FC45B126462BA716F8011B3846FFF75E
:105F60000DFC6D1EF8D128A0FFF708FC2078302822
:105F700045D160784F2826D0542822D100F068F906
:105F8000024642208DF8040020A154208DF805001F
:105F900003A800F05FF9042203A90DF1060000F048
:105FA00073F90A208DF80A0000208DF80B004FF4D9
:105FB000FA70FEF7A5FB082101A800F0A1F905B0D1
:105FC000F0BD45281BD1A1788DF8001000A8E1781C
:105FD00041700A22217981706179C170002100F03D
:105FE0009DFA05B0F0BD4988891C884204BF20781D
:105FF000012804D10748016841F00401016005B09F
:10600000F0BD0000256300000D0A000025640000BB
:10601000980E002060010020669A0C200008969ED1
:10602000E2119EB1E0F273D9669A0C200008969EA8
:10603000E2119EB1E1F273D9669A0C200008969E97
:10604000E2119EB1E2F273D9436861742053657224
:10605000766963652061646465642E0D0A54582076
:10606000436861722048616E646C65202530345845
:106070002C20525820436861722048616E646C6520
:1060800020253034580D0A004572726F72207768EF
:10609000696C6520616464696E672043686174207F
:1060A000736572766963652E0A0000007265766515
:1060B000697665643A200000B0F1804F02881CBF09
:1060C000104B984205D0104B98421CBF0F4B984282
:1060D00004D14FF68F731A404B881A430C4B9842E9
:1060E0001CBF0C4B984204D04FF6FF431A400B895B
:1060F0001A4302804A68C2620988018501218182AF
:10610000704700000004004000080040000C004000
:1061100000100040001400400029018812BF41F027
:1061200001014FF6FE72114001807047002A8289FA
:1061300014BF114322EA010181817047C9430182E2
:106140007047038A8089002208400B421CBF002848
:10615000012210467047C943018270470448054A2E
:10616000C06102210172426203490162086800476E
:10617000700E0020C40000209400002000604060E9
:1061800070470168814201D10120704700207047AB
:1061900002680A60486001600868416070470860F2
:1061A00042684A60416048680160704702680A605E
:1061B0000068436802681A60426800684260002014
:1061C0000A68106009684860704710B5044600F01E
:1061D0005BF8204610BD10B5044610460A4601463D
:1061E000204600F0C5F9204610BD0000F0B5044679
:1061F0000C4800680D460A2183B0B0FBF1F1164649
:106200001F4600A800F010F8FBB2F2B22946204663
:10621000FDF7A3FF20B100A800F00DF80028F3D08F
:1062200003B0F0BD9C6D000810B504466160FEF738
:1062300064FA206010BD10B50446FEF75EFA2268CD
:106240006168801A401C81428041C00F10BD00006F
:10625000FEF78ABA0CB41CB5044604A801900A469D
:10626000009401AB00A9074878441830FEF786FA7D
:10627000009A0021117000285CBF0098001B16BC1A
:106280005DF80CFB6BDAFFFF62B38B0708D0521E80
:1062900011F8013B00F8013B00F024808B07F6D198
:1062A000830740F0208000BF103A07D330B4B1E834
:1062B0003810103AA0E83810F9D230BC530724BF88
:1062C000B1E80810A0E8081044BF51F8043B40F8BA
:1062D000043BD20724BF31F8022B20F8022B44BF25
:1062E0000B7803707047083A07D3B1E80810083AF2
:1062F00040F8043B40F804CBF7D25307E4E7000032
:106300002DE9F04F8A460026BAF1000F83B081468E
:10631000DFF8B0B0DFF8B0802C4C4ED02088B0F55C
:10632000FF7FC4BF00202080218816F809000919CA
:10633000087116F80900FFF71AFA2088401C20801F
:1063400080B20019C1780D2918BF0A2931D10A215C
:10635000C1701BA0FFF712FA208801281FBF00257B
:1063600002191571002822D02088471B18480068A0
:10637000152FA8BF142700EB8001490001A8FFF7E3
:1063800053FF201D28180090FBB2B8F80010BBF88E
:1063900000000022FFF7ABFC642804D101A8FFF73E
:1063A0004AFF0028EDD020887D198542DCDB0020E3
:1063B0002080761CF6B25645B0DB03B0BDE8F08F06
:1063C0000D0A0000980E00209A0E00202C0C0020D0
:1063D0009C6D00082DE9F04F85B004461E000D4667
:1063E00090461CBF00203060A14601E009F1010980
:1063F00099F80000A0F109010529F7D32028F5D06C
:106400002D2816BF2B2819F8017B2B27B8F1000F78
:1064100057D4B8F1010F54D0B8F1250F51DAB8F1C3
:10642000010F0DDBB8F1100F04BF99F80000302800
:1064300002BF99F8010040F02000782814D10EE046
:1064400099F80000302818BF4FF00A080CD199F8CD
:10645000010040F02000782804D14FF0100809F125
:10646000020901E04FF00808CDF8109001E009F1B1
:10647000010999F800003028F9D00FF2A40B4FF071
:10648000000ACDF80C908DF808B00AE09DF80810CD
:10649000CDF804A0401AC0B2009008FB0A0A09F126
:1064A000010999F80010A1F141001A2838BF2031E4
:1064B00042465846FEF7F6FB0028E7D104984845C7
:1064C00003D105B12C60002025E00FF27C01039878
:1064D00018F80110A9EB0000401A14D4012808DABA
:1064E0000098BAEB000004D30199B0FBF8F08842A1
:1064F00009D000F071F8222101600EB10120306056
:106500004FF0FF3A03E02D2F08BFCAF1000A0DB18A
:10651000C5F80090504605B0BDE8F08F002359E75C
:106520003031323334353637383961626364656609
:106530006768696A6B6C6D6E6F7071727374757673
:106540007778797A0000000000002115110E0D0CFB
:106550000B0B0A0A090909090908080808080808AC
:1065600007070707070707070707070707000000D0
:1065700062F30F2262F31F42401810F0030308D0A9
:10658000C91A1FD3DB0748BF00F8012D28BF20F828
:10659000022D130030B414461546103928BF20E9E7
:1065A0003C00FAD8490728BF20E90C0048BF40F852
:1065B000042D890028BF20F8022D48BF00F8012DC6
:1065C00030BC7047C91818BF00F8012DCB0728BF91
:1065D00000F8012D70470000014800F003B80000EA
:1065E000800100207047000000B581B0FEF76FFE0B
:1065F000794909680020887200F002F900F018F962
:1066000000207649086001B000BD00B572480268FC
:1066100081B00021917272490268C97951720021DA
:106620000068C1720020FDF7E3F94FF4007100200B
:10663000FDF7E5F910210020FDF7EDF940210020DC
:10664000FDF778FA80210020FDF767FA0020FDF7BA
:1066500032FA644890F82C100020FDF793FA0020DD
:10666000FDF719FA00210120FDF7C9F9C021012029
:10667000FDF753FA20210120FDF7CDF9002101207B
:10668000FDF7E1F94FF4C0610220FDF7B8F94FF4CE
:1066900080710220FDF741FA00210220FDF7D3F9B5
:1066A00020210220FDF7B7F900210320FDF7A7F90B
:1066B0004FF488710320FDF73DFA40210320FDF7D8
:1066C00061FA4FF440510320FDF7BDF9002103208A
:1066D000FDF7A1F90020FDF705F940490120086008
:1066E00001B000BD4048807A10B13C4905200860E7
:1066F00070473A490420086070477047704700B5FA
:10670000212881B009D134480068007800F07F006A
:10671000212817D10FF2990112E0202812D12E4919
:1067200032480968097801F07F01212904D020212D
:106730000170022001B000BD20220FF28901027019
:10674000080002D1022001B000BD23480068816129
:106750000022428200208847002001B000BD1E496F
:106760000968097801F07F01212905D1022818BFA5
:10677000222801D100207047022070471C49FCF7F5
:10678000F1BD1C49FCF7EEBD13490968C97805291C
:1067900001DB00207047184A02EBC101FCF7E2BDA3
:1067A00009B9022801DB0220704700207047000071
:1067B00028B90949096808200882002070470F4855
:1067C0007047000028B904490968082008820020A1
:1067D00070470A48704700008C0E0020BC0E002055
:1067E000DC6A000894000020700E0020C40E002017
:1067F0006C01002074010020E800002064010020EA
:1068000000B581B00120FEF7FDFC0748074A0121D1
:1068100001600021016041604FF4E051118001608E
:10682000002001B000BD0000405C00409E0E002032
:106830000448054A002141604FF40641118001607F
:1068400000207047405C00409E0E002070B500F0B4
:106850007F050C462846FDF7B2F906462846FDF7A7
:106860007EF9014632462046FDF71AFA304670BDE1
:106870002DE9F04F81B00020ADF8000048F280040F
:10688000474DDFF82081484EDFF82091DFF820A146
:1068900040F68F7B4BF6BF7726E000BF56F82010FE
:1068A000ADF80010BDF8001009040AD556F8201004
:1068B0000BEA010146F8201008EB800050F8040CA8
:1068C0008047BDF8000000060ED599F8000056F884
:1068D000201048F60F72114046F82010354901EBA0
:1068E000800050F8040C8047706CAAF80000000487
:1068F00053D5BAF8000010F00F0089F80000CDD190
:1069000030682880288800F030006880288800F4EB
:10691000405028803068384080F4005080F02000DB
:1069200020433060BAF80000C006306806D448F64C
:106930000F7108403060FCF725FF16E0ADF800004D
:10694000BDF80000000506D530680BEA0000306095
:10695000FCF7CEFE09E0BDF800000004C4D53068A5
:106960000BEA00003060FCF749FF306829883840A6
:10697000C904298848BF80F480508904698848BFC9
:1069800080F40050C906698848BF80F0100089066D
:1069900048BF80F020002043306001B0BDE8F08F98
:1069A000B40E002040010020005C0040C30E002017
:1069B000BA0E0020240100203E483F4A83B00168FF
:1069C00041F4807101608168114081603B4A016837
:1069D00011400160016821F480210160816821F487
:1069E0007D0181600021C1600191009102910168E7
:1069F00041F001010160016801F00201009100997C
:106A000019B90199B1F5A04FF5D10168490801F014
:106A1000010100910099012907D1816821F47D01CC
:106A20008160816841F4880181604FF40062D0F890
:106A3000001441F00401C0F80014D0F8001441F033
:106A40000201C0F80014D0F8001441F00101C0F8B0
:106A50000014416A41F08051416219490A604A6854
:106A6000D206FCD481688160816881608168816020
:106A7000816821F47D018160816841F408018160B1
:106A8000016841F08071016001688901FCD581686D
:106A9000890889008160816841F003018160816813
:106AA00001F00C010C29FAD14FF000600549086093
:106AB00003B07047003802400CC0FF88FEFFFEEEB6
:106AC0000070004008ED00E01201000202000040EA
:106AD0008304405700020102030100000902430041
:106AE000020100C032090400000102020100052475
:106AF00000100105240100010424020205240600FF
:106B000001070582030800FF09040100020A0000D2
:106B10000007050302400000070581024000000055
:106B2000040309042603530054004D006900630068
:106B300072006F0065006C006500630074007200F5
:106B40006F006E00690063007300000032035300A1
:106B500054004D00330032002000560069007200DE
:106B60007400750061006C00200043004F004D0070
:106B7000200050006F007200740020002000000010
:106B800030B525480178012981B025D123490A680B
:106B90001AB900210170002414E021480368412A39
:106BA0001D4603D340244033403A02E01446D31834
:106BB000002203600A60ADB21A48A2B2C0212818B0
:106BC000FDF72AF8A1B20120FCF7D3FF01B0BDE820
:106BD00030400120FCF74FBF01B030BD10B5124C62
:106BE00021460320FFF732FE81B22046FEF7C1FDA9
:106BF000BDE810400320FCF74EBF0C480068052894
:106C000009D10B4801684A1C0129026003D1002107
:106C10000160FEF706BB7047840100206009002078
:106C20005C09002088010020300E0020BC0E0020EE
:106C3000B00E002070B5134D134C2868134E6080C1
:106C4000608831880840800507D54FF6FF502860DE
:106C50002078401C2070FFF7D0FF60883188084002
:106C6000000448BFFFF704FE6088318808404005F3
:106C700007D54FF6FF302860BDE8704004484068F3
:106C8000004770BD445C0040B80E00209E0E0020FE
:106C90009400002000B581B010210848FDF71AFCCF
:106CA0004020FDF7B8FC28B101B05DF804EB4020AE
:106CB000FDF7B9BC01B000BD0000000000080240B3
:106CC00010B5074979441831064C7C44163404E069
:106CD0000A68081D511888470146A142F8D110BD25
:106CE00008000000280000000FCFFFFF440D000047
:106CF0008401002000000000CBCCFFFF84010000D5
:106D000034010000000000200000000000F00BF83B
:106D1000002801D0FFF7D4FF0020C046C046FDF791
:106D2000EDFF00F002F80120704700F001B800000C
:106D30000746384600F002F8FBE7000080B5C04681
:106D4000C046024A11001820ABBEFBE72600020035
:106D50007047FEE7FEE7FEE7FEE7704770477047C3
:106D6000FFF768BFFEF7DEBD38B504460D4628467E
:106D7000FEF7F0FAA84218BF0024204632BD0000FA
:106D80000148804701480047B9690008916D000833
:106D9000C046C046C046C046FFF7B8FFE803000043
:106DA000FFF7FEBFFFF7FEBFFFF7FEBFFFF7FEBF17
:106DB000FFF7FEBFFFF7FEBFFFF7FEBFFFF7FEBF07
:106DC000FFF7FEBFFFF7FEBFFFF7FEBFFFF7FEBFF7
:106DD000FFF7FEBFFFF7FEBFFFF7FEBFFFF7FEBFE7
:106DE000FFF7FEBFFFF7FEBFFFF7FEBFFFF7FEBFD7
:106DF000FFF7FEBFFFF7FEBFFFF7FEBFFFF7FEBFC7
:106E0000FFF7FEBFFFF7FEBFFFF7FEBFFFF7FEBFB6
:106E1000FFF7FEBFFFF7FEBFFFF7FEBFFFF7FEBFA6
:106E2000FFF7FEBFFFF7FEBFFFF7FEBFFFF7FEBF96
:106E3000FFF7FEBF00000000000005050505050581
:106E40000000000000000000003800400038004052
:106E50000004024000040240000802400008024012
:106E600000040240000402400F000F000004024032
:106E7000000402400E000E00000402400004024024
:106E80000D000D0000080240000402400000000058
:106E900000000000000000000000000000000000F2
:106EA00000000000000000000000000000000000E2
:106EB00000000000000000000000000000000000D2
:106EC0000000000000000000E96500080B660008F3
:106ED000FB660008FD660008FF6600085F670008A3
:106EE000A16700087D6700088367000889670008BC
:106EF0000000000040000000C1390008E5660008FD
:106F0000C1390008C1390008C1390008C139000879
:106F1000C1390008C1390008F3660008206B000879
:106F200004000000246B0008260000004C6B0008E1
:106F300032000000080100201A0000001A0353006C
:106F400054004D00330032003100300000000000DA
:106F50000000000000000000816B0008C13900083B
:106F6000C1390008C1390008C1390008C139000819
:106F7000C1390008C1390008C1390008DD6B0008BB
:106F8000C1390008C1390008C1390008C1390008F9
:106F9000000000000200000000C201000000080024
:106FA000C86A000812000000DC6A00084300000004
:086FB0000401000000000000D4
:0400000508006D91F1
:00000001FF
