:020000040800F2
:10300000C81A0020797F0008497F00084B7F00081C
:103010004D7F00084F7F0008517F0008000000002E
:10302000000000000000000000000000537F0008C6
:10303000557F000800000000577F00080D5F000862
:10304000997F00089D7F0008A17F0008A57F0008E8
:10305000A97F0008AD7F0008B17F0008B57F000898
:10306000B97F0008BD7F0008C17F0008C57F000848
:10307000C97F0008CD7F0008D17F0008D57F0008F8
:10308000D97F0008DD7F0008E17F0008E57F0008A8
:10309000597F0008E97F0008ED7F00088D7E000859
:1030A000F17F0008F57F0008F97F0008FD7F000828
:1030B0001D690008C56400086B69000801800008EC
:1030C00005800008098000080D80000811800008B4
:1030D00015800008198000081D8000082180000864
:1030E0005D7F000825800008298000088F6900089E
:1030F000BB6900082DE9F04FA1B0824600201746B9
:103100001D4602910B900DF1440B6FF000490AE04F
:1031100017F8011B0298D0470290002800F0A882FF
:103120000B98401C0B90387808B90B98A2E2252820
:10313000EED10020059006900790089009900A9023
:1031400001E040F0010017F8011F2029F9D02329E0
:103150000DD02B2904D02D2906D030290AD00CE01F
:1031600040F0020080B2EEE740F00400FAE740F0E1
:103170000800F7E740F01000F4E72A290ED129688B
:10318000296051F8042B2960002A0D9204D5514280
:1031900040F004000D9180B27F1C11E000210D91E0
:1031A00009E00D99494505D001EB810302EB43018C
:1031B00030390D917F1C3A78A2F130010A29F0D301
:1031C00039782E2903D04FF0FF310C911DE017F80C
:1031D000011F2A2907D1296829607F1C51F8042B77
:1031E00029600C9211E000210C9109E00C994945ED
:1031F00005D001EB810302EB430130390C917F1CB8
:103200003A78A2F130010A29F0D3ADF838000FF670
:103210007440397800F05AFE08B117F8010B8DF8A8
:103220003A009DF83A00682802BF39786829622080
:1032300005D06C2804BF38786C2803D171208DF834
:103240003A007F1C11A8049017F8014BB4F1250037
:103250002AD01C3800F0CC80001F022840F2C88021
:10326000133800F0EE80093800F0C280801E00F0B4
:103270004F81401E00F02481401E022840F2B88099
:10328000001F00F01D81401F00F08380401E00F0F1
:10329000D880401E29D0C01E0CD0801E00F0D180E6
:1032A000C01E00F0CE803DE10120059025208DF864
:1032B000440043E12868286050F8044B28600394D8
:1032C000DDF83080B8F1000F04D5204600F01AFE7A
:1032D000804607E042460021204600F033FE08B158
:1032E000A0EB0408CDF8188028E1296829604FF088
:1032F0003C0851F8040B29600021CDE9000111A818
:103300000390DDE90001049C11B908B90C9AC2B11F
:103310000206120FA0EB02123032D2B23A2AA8BF34
:1033200027320009A8F1010340EA017009091A5582
:1033300008BF0028984604D0039A08EB04039A4279
:10334000E6D308EB04000390C8F13C010C98069109
:10335000814209DA401A08904FF6EF71BDF8380043
:103360000840ADF83800E9E0002840F1E7809DF81A
:10337000380000F01400102840F0E0800D98059A05
:10338000801A089A801A401A0128C0F2D780089043
:10339000D4E09DF83A0062281AD0682806D06A283E
:1033A0000CD06C281CD0712808D019E0286828603F
:1033B00050F8041B28600B980880BFE0286828603C
:1033C00050F8042B28600B98C117C2E90001B5E042
:1033D0002868286050F8041B28600B980870ADE03E
:1033E0002868286050F8041B28600B980860A5E046
:1033F0002868C01D20F007022A60D2E900010832C7
:103400002A60CDE90001002903D5012005902D2077
:103410000CE0BDF83800810703D5012005902B2072
:1034200004E0C00704D50120059020208DF8440059
:10343000059911A808180390214600A800F0D8F9B2
:103440007CE09DF83A206C2A0DD0712A18BF6A2AB8
:1034500009D12868C01D20F007032B60D3E90001C3
:1034600008332B6005E02968296051F8040B2960B6
:103470000021CDE90001682A08BF80B207D0622A86
:1034800008BFC0B203D0742A18BF7A2A02D1002123
:10349000CDE900019DF83800000730D5DDE90001D5
:1034A000002908BF00282AD044F02000782826D11F
:1034B00030208DF844008BF80140022005901EE07A
:1034C0009DF83A00294600F0D8F8CDE9000100291E
:1034D00004DA0598411C05912D210EE0BDF8380055
:1034E000810704D50598411C05912B2105E0C007F3
:1034F00005D50598411C0591202100F80B10059970
:1035000011A808180390214600A800F0EDF815E076
:10351000012005902868286050F8041B28608DF869
:1035200044100BE0012005902520002C8DF844006C
:1035300004D00598411C059100F80B400D980599A1
:10354000401A0899401A0699401A0999401A079991
:10355000401A0A99A0EB01089DF8380040070FD4E3
:1035600020208DF84000002408E0012310AA00A9C3
:10357000504600F070FC00287AD1641C4445F4DB0E
:10358000059C11AE0AE016F8011B0298D047029084
:1035900000286DD00B98401C0B90641E002CF2D1BB
:1035A00030208DF840000026089C08E0012310AA76
:1035B00000A9504600F04FFC002859D1761CA642C5
:1035C000F4DB069C039E0AE016F8011B0298D04724
:1035D000029000284CD00B98401C0B90641E002CCD
:1035E000F2D130208DF840000026099C07E001232D
:1035F00010AA00A9504600F02EFCC8BB761CA642BB
:10360000F5DB03980699079C0E1809E016F8011BD4
:103610000298D047029058B30B98401C0B90641E40
:10362000002CF3D130208DF8400000260A9C07E0E2
:10363000012310AA00A9504600F00DFCC0B9761C69
:10364000A642F5DB9DF8380040077FF56CAD2020E1
:103650008DF84000002400E0641C4445BFF663ADD3
:10366000012310AA00A9504600F0F5FB0028F3D072
:103670004FF0FF3021B0BDE8F08F622826D06828D7
:103680001DD06A2808D06C2827D0712804D074284F
:1036900023D07A280CD020E00868C01D20F0070055
:1036A0000860D0E9002308300860194610467047CA
:1036B0000A680A6052F8040B0A60002170470A6821
:1036C0000A6052F8040B0A6000B20BE00A680A6054
:1036D00052F8040B0A6040B204E00A680A6052F82B
:1036E000040B0A60C11770472DE9FA4E05460A46D9
:1036F0002F696F2A08BF082405D041F020007828E0
:1037000014BF0A2410243C26D5E90001642A18BFFE
:10371000692A81468A4605D1002903DAD9F10009D0
:103720006AEB4A0ABAF1000F08BFB9F1000F0CD1D9
:10373000286B50B9082C36D195F83800000732D5DF
:1037400030203B2687F83B002DE0E31748465146E2
:10375000224600F023FCA4FB0023A9EB0202303236
:10376000D2B2A6F1010B3A2A5E4603DB9DF8003087
:10377000513B9A1881465FEA010A0BF8072008BFFF
:10378000B9F1000F03D0E868F1198842DDD3082CA5
:1037900009D195F83800000705D5F05D302802D032
:1037A000761E3020F055C6F13C00A861F119E960A1
:1037B000296B884208DA081A28624FF6EF71288FC1
:1037C00008402887BDE8F38E00290ED595F83810FB
:1037D00001F01401102908D1696B6A69891A2A6AF3
:1037E000891A081A0128A8BF2862BDE8F38E0000D4
:1037F0002DE9F24F04468EB0D4E90001CDE9020173
:1038000004AF9DF8380040F0200BBBF1610F0AD0E7
:10381000206B002848BF062004D408BFBBF1670F07
:1038200001D1012020636168C1F30A5040F2FF72A8
:1038300090421CD1080304BF2068002809D103204E
:10384000A0619DF8380061381A2836D30FF248611C
:1038500008E00320A0619DF8380061381A2829D3B8
:103860000FF22C61E068032200F010FCBEE1012899
:1038700016DA204600F045FC012811DB0025002067
:10388000BBF1610F20D1E168302201F8012B4A1C05
:10389000E2609DF83820612A0CBF782258220FE0A0
:1038A000626840F2FE3161F31E52451A62604FF0C9
:1038B000FF30E5E70FF2D451D4E70FF2D851D1E74A
:1038C0000A706169891C616110B90026002584E1D4
:1038D000BBF1610F40F09780206B00284CBF212680
:1038E000461CDDE90201D4E900AB0022002300F010
:1038F00029FC36B23ABF8BF00040CDE902A0CDE9F9
:1039000002AB06F101082D1F8DF810200DF11107F3
:1039100000E0C71DB8F1010F33DBDDE90201002231
:10392000002300F027FC2CD21C2102A800F03AFC56
:10393000DDE9020100F0BEFCA8F10708B8F1010FB3
:10394000814609DB00F0E2FC02460B46DDE902019C
:1039500000F0F4FCCDE90201F81D072105E009F0B3
:103960000F0200F8012D4FEA2919B9F1010F01DB0F
:10397000491EF4D5491E5CBF002200F8012DF9D57F
:10398000C7E70DF11100391AB142B8BF0E4636B281
:1039900030000DF111072FD4884206DA04A941182E
:1039A00049780829A8BF0F2100DA002104AA82184B
:1039B00000E0761E12F80139401E8B42F9D00F2923
:1039C00004D104A941184A78521C4A70002802D533
:1039D00004AF761C2D1D36B2701E0DD4C1190A78A5
:1039E0003032D2B23A2A03DB9DF838303A3B9A188B
:1039F000401E01F80129F2D5206B002840F1ED802E
:103A0000701E2063E9E0DDE902010022002300F0DE
:103A100099FB3CBF81F00041CDE902012DB247F294
:103A2000975068434B49DFF8309190FBF1F52DB288
:103A3000C5F1070ABAF1010F90461CDBDDE9026708
:103A40005FEACA7007D542464B463046394600F019
:103A500035FD06460F464FEA6A0A40464946424649
:103A60004B4600F02BFDBAF1000F80468946E7D1A6
:103A7000CDE9026724E0CAF1000A0026374F14E0BE
:103A80005FEACA7007D542464B463046394600F0D9
:103A900015FD06460F464FEA6A0A40464946424629
:103AA0004B4600F00BFD80468946BAF1000FE7D186
:103AB000DDE9020132463B4600F0D2FDCDE90201CC
:103AC000BBF1660F216BDFF898900CBF05F10A007F
:103AD00006204618142EA8BF132630208DF810009B
:103AE0000DF11107012E3DDBDDE9020100F0F8FBCD
:103AF00007F1080104220A23B0FBF3F303EB830769
:103B0000A0EB4700303001F8010D0A20B3FBF0F0C4
:103B100000EB8007A3EB47033033521E01F8013D51
:103B2000E9D1083E012E01F10807DBDBDDE90201E6
:103B300000F0D6FB00F0F4FB02460B46DDE9020183
:103B400000F0FCFB00224B4600F0B8FCCDE902017E
:103B5000CAE700BFA0860100000024400000F03F3B
:103B600084D797410DF11100381A0DF1110702E0C9
:103B7000401E6D1E7F1C39783029F9D0BBF1660FCD
:103B800002D12DB2691C04E0BBF1650F0CBF01210D
:103B90000021226B8E1836B2B042B8BF064636B24C
:103BA00031001AD4814204DAC85D3528A8BF392013
:103BB00000DA3020CA19521E00E0761E12F80139D0
:103BC000491E8342F9D0392802D1C85D401CC8552E
:103BD000002902D57F1E761C6D1C2DB29DF8381071
:103BE000009533B23A46204600F003F80FB0BDE826
:103BF000F08F2DE9F043054685B01E46D5F830809C
:103C0000012E8946174602DA01260FF2902749F065
:103C10002000BDF93040662808BF641C17D0672813
:103C200040F0828014F1040FC0F28480444580F299
:103C3000818095F83800641C000702D44645B8BF5F
:103C4000B04624B2B8EB040848BF4FF0000824B2D5
:103C5000E868A969012C25DA4A1C30230B54B8F115
:103C6000010F03DA95F83810090702D52E211154F7
:103C7000521C18EB040FB8BFC8F1000424B2614213
:103C8000A044B045AA61B8BF4646696236B2EE614B
:103C90003246AB693946181800F0F8F9A8EB06006F
:103CA000A862C1E00818A64218DA3246394600F088
:103CB000EDF9A9697118A01BA961B8F1010F68623B
:103CC00003DA95F83800000705D5EA682E208854F5
:103CD000E869401CE861C5F82880A5E0224639461D
:103CE00000F0D4F9A8692018361BB8F1010F03DAE7
:103CF00095F83810090703D5EA682E218154401C35
:103D0000A86136B2B045B8BF4646E868AB6936B27E
:103D10003246E119181800F0B9F9A8693018A861FD
:103D2000A8EB060068627FE0B9F1610F16D14FF091
:103D3000700918E0464504DA95F83810090758BFAD
:103D4000B046B8F1010848BF4FF00008B9F1670F5D
:103D500014BF4FF045094FF0650904E0B9F1410F78
:103D600008BF4FF05009A969E86817F8013B0B54E8
:103D70004A1CB8F1010F05DA95F83810090758BF49
:103D8000AA6117D52E211154531CB8F1010FAB6154
:103D900010DB761E36B2B045B8BF464636B2324664
:103DA0003946181800F072F9A8693018A861A8EB14
:103DB00006006862E868A9690F18200007F8019BEF
:103DC00003D42B2007F8010B03E02D2107F8011B7A
:103DD000644200260DF1080808E00A2200A800F05D
:103DE00062FD019808F8010B761C009C21B20129A4
:103DF000F3DA022E06DA49F02000652804BF3020ED
:103E000007F8010B4EB9302007F8010B07E0761ECA
:103E100002A8305C303007F8010B012EF7DAE868B1
:103E2000A9690818381AE86195F8380000F01400FC
:103E300010280DD16869A9690818696A0818E96924
:103E40000818A96A0818696B8842BCBF081A28625A
:103E500005B0BDE8F083F8B504460D4616461F468A
:103E6000002004E0E86A401CE8627F1E002047B1A1
:103E700016F8011BA868A047A8600028F2D14FF0EF
:103E8000FF30F2BD686A6C747A4C00006E616E009F
:103E90004E414E00696E6600494E4600300010B437
:103EA00050F8041B81B102681218001D50F8043B41
:103EB000DC0744BFA9F10104E31852F8044B43F8AE
:103EC000044B091FF9D1EBE710BC70470278C9B267
:103ED0008A421AB11CBF10F8012FF9E718BF002061
:103EE000704750F8041B61B150F8042BD30744BF4E
:103EF000A9F101039A180023091F42F8043BFAD1E3
:103F0000EFE7704700F10103810704D010F8011BAF
:103F100089B18107FAD10268B2F10131914311F000
:103F2000803F04BF50F8042FF6E710F8011B11B1D1
:103F300010F8011BFBE7C01A70470268531C0360AE
:103F400011707047C9B2830706D0521E22D310F8F1
:103F5000013B9942F7D11FE0083A13D302F1040262
:103F600041EA012141EA014150F8043B121F21BFFF
:103F70004B40A3F1013C2CEA030C1CF0803FF3D032
:103F8000C9B2001F083210F8013B521E28BF91EA47
:103F9000030FF8D818BF0120401E70471B4213D1F1
:103FA000094236D12AB18446B0FBF2F002FB10C2BE
:103FB000704700F07FBCFCD30022002370470B0049
:103FC0000200002100207047904271EB030CF6D3F1
:103FD00070B5B1FA81F4B3FA83F52C1BA340C4F198
:103FE000200532FA05F63343A2405FF00046E64072
:103FF00002E05B085FEA3202841A71EB030524BF1A
:10400000204629467641F4D302000B0030000021FF
:1040100070BD012ACFD970B5140C20D0B1FA81F44B
:10402000B2FA82F5C4F120046419B4F12006D6D3A3
:10403000B2405FF00044F440002502E052085FEA1D
:104040003303C61A71EB020E24BF30467146644139
:104050006D41F3D302000B002000290070BD0C4617
:10406000B1FBF2F102FB11452D0445EA1045B5FB09
:10407000F2F402FB145580B240EA0545B5FBF2F0BC
:1040800002FB105240EA044070BD000062B38B078F
:1040900008D0521E11F8013B00F8013B00F02480CB
:1040A0008B07F6D1830740F0208000BF103A07D37A
:1040B00030B4B1E83810103AA0E83810F9D230BC6A
:1040C000530724BFB1E80810A0E8081044BF51F816
:1040D000043B40F8043BD20724BF31F8022B20F800
:1040E000022B44BF0B7803707047083A07D3B1E83E
:1040F0000810083A40F8043B40F804CBF7D25307C5
:10410000E4E730B4436803F0004201211B031B0BBA
:10411000436004BF0368002B08D10DE00368DD0F86
:1041200045EA440444605B000360491E4468E302BE
:10413000F4D523031B0B436043681A4342600846CF
:1041400030BC70474FF4001C1CEB410F94BF1CEBBC
:10415000430F09E041EA030C50EA4C0C52EA0C0C04
:1041600003D2994208BF9042704714BF8B428242EB
:10417000704700004FF4001C1CEB410F94BF1CEB78
:10418000430F09E041EA030C50EA4C0C52EA0C0CD4
:1041900003D28B4208BF8242704714BF99429042BB
:1041A0007047000070B504460D466068C0F30A50C1
:1041B00040F2FF71884207D16068000304BF2068A5
:1041C000002817D0022070BD20B92046FFF799FFC4
:1041D000012868DA012D0FDB40F2FF71091A8D42C8
:1041E0000AD36068002847BF0020304900203049CA
:1041F000C4E90001012070BD4142A942616806DAAC
:104200006FF31E51401941EA0050606042E0401EC9
:1042100063684519012205F1350062F31F53352803
:1042200001F00041636003D361600020206070BD35
:10423000002215F11F0F04DA2268236000202035C8
:104240006060684214D0521E25689241C0F120037C
:10425000D2439D4045EAD272256825FA00F665688A
:1042600005FA03F333432360636823FA00F56560BE
:1042700060680843B2F1004F606003D80DD1207828
:10428000C0070AD52068401C2060206828B96068F3
:10429000401C60604FF0FF3070BD6068884204BF12
:1042A00020680028F6D1002070BD00BF0000F0FF9C
:1042B0000000F07FF446400D40EAC120490006D2DC
:1042C00000F014F8004248BF6FF00040604700F073
:1042D0000DF84FF0004188428CBF084640426047CD
:1042E000400D40EAC120490080F00D8040F00040C0
:1042F000490DA1F58061491C05D4D1F11F0154BFBE
:10430000C840C01770474FF000007047010040F1EF
:104310000980F446404200F005F851F00041604742
:10432000010000BF09D0B0FA80F18840C91CC1F576
:104330008461090501EBD0214005704770B44FF04E
:10434000004591EA030F44BF6B4000F0B5BA00BFCF
:10435000841A71EB030604D26E40001BB14112199E
:1043600073414FF4001C1CEB410F34BF7CEB430640
:1043700084E00C0DA4EB1356362E7DDC012E43DCBD
:1043800045EAC32343EA525312BFD20292025B08AA
:10439000240545EAC12141EA5051D2EBC0209941A0
:1043A00025D407D1B0FA80F610FA06F164D00020C7
:1043B000203608E0B1FA81F6B140C6F1200220FAB9
:1043C00002F21143B0404FEAF474B4EB465434F0B7
:1043D00001064FEA74040AD8D6F50016760D04F0EB
:1043E0000044F04061FA06F25040F1404840C00AF3
:1043F00040EA415021F0004128BF5FEA500550F1EA
:10440000000044EBD12137E045EAC323DB0A45EA4B
:10441000C121C90AB6F120050EDD42EA0242120CA2
:10442000C5F1200603FA06F6EB4042EA06056D42A6
:10443000984161F100010DE062FA06F5F240554045
:1044400063FA06FC82EA0C02F3405A406D42904146
:1044500061EB030111F4801F05D1641E620502D0D7
:104460006D004041494121F48011430875F100433A
:1044700050F1000041EB045170BC70471CEB410F40
:1044800015D223F0004352EA43060BD04FEA4C0CFE
:10449000BCEB410F04D80C0D661E342EB7DDEBE7E4
:1044A000801A994150EA410608BF0021E4E708BF9D
:1044B0001CEB430F28BF6FF00001DDE7B0B581EAC8
:1044C000030C0CF0004C40F2FF7515EA11541DBFAF
:1044D00015EA1357AC42AF4239E0E41923EA4553D9
:1044E00043F48013C90241F0004141EA505EC70223
:1044F0001100A7FB020200284FF00000EEFB012094
:104500004FF00001E3FB072118BF42F00102401801
:1045100000214941E3FB0E01A4F580640F0302D2A0
:1045200052004041494154F101046CDD470872F1E9
:10453000004250F1000051EB0451A1F580115CBF25
:1045400041EA0C01B0BD4CEA05510020B0BD05EABE
:104550001357AC4214BFAF4241E050EA410E1CBFBA
:1045600052EA430E02E061460020B0BD24423C44C2
:104570001BD15FEA070EF6D0090302BF01460020F7
:10458000AEF1140EB1FA81F7AEEB070401FA07FEA3
:104590000C37C7F1200100FA07F7C8404EEA000EB9
:1045A00023EA455343F48013A2E733F00043B3FA00
:1045B00083F704BFB2FA82FE77440B3FE41BB7F1E6
:1045C000200E2FBF02FA0EF3BB40C7F1200E22FAD5
:1045D0000EFE38BF43EA0E03BA40641C82E750EA7D
:1045E000410E14BF52EA430E6FF000014FF4001762
:1045F00017EB430F8ABF194617EB410FB5E74CEA9B
:1046000005510020B0BDD4F10104B4F120070FDA48
:10461000C4F12007520828BF42F0010210FA07F542
:1046200001FA07F7E1BF2A43E0403843E1400FE0D9
:10463000352C98DCC7F1200452EA400220FA07F238
:1046400018BF42F0010231FA07F0A1400A430021ED
:1046500072F1004250F1000051EB0C01B0BD0000BE
:10466000F0B540F2FF7581EA030C0CF0004C15EA3E
:1046700011541DBF15EA1357AC42AF42E5E0BC41EF
:10468000C1F31301C3F31303801A994143F4801358
:1046900004D2641E4000494180185941C90241EAD0
:1046A0005051B1FBF3F603FB1611A2FB0675D7EBD5
:1046B000C020A94102D2761E80185941C90241EAA0
:1046C0005051B1FBF3FE03FB1E11A2FB0E75D7EB9D
:1046D000C020A94103D2AEF1010E801859418902D0
:1046E00041EA9051760546EA8E2EB1FBF3F603FBC4
:1046F0001611A2FB0675D7EB8020A94102D2761EC7
:1047000080185941C90241EA50514EEA060EB1FBE8
:10471000F3F603FB1611A2FB0675D7EBC020A941E7
:1047200002D2761E80185941C90241EA5051B1FBAC
:10473000F3F703FB1711A2FB0735D3EBC020A94108
:1047400067F100070CBF004247F0010766F3D52769
:104750004FEA1E31B80814F5806412DDBD0775F10B
:10476000004250EB0E5051EB045111F5801F5CBF1D
:1047700041EA0C01F0BD4CF07F6141F0E0410020C6
:10478000F0BDBD076D0840EA0E5041F48011D4F130
:104790000104B4F120060ADAC4F120060200E04068
:1047A00001FA06F3E1401843B24015430EE0342C01
:1047B00013DCC6F1200445EA40056D0820FA06F234
:1047C000154321FA06F0A1400D43002175F1004286
:1047D00050F1000051EB0C01F0BD00205FEA0C012C
:1047E000F0BDCFB992185B41B3FA83F704BFB2FAB8
:1047F00082F6BF190B3FB7F120062FBF02FA06F36E
:10480000BB40C7F1200622FA06F638BF3343BA4050
:104810001CB1E419641E33E77F4231F00041B1FA64
:1048200081F404BFB0FA80F6A4190B3CB4F1200661
:104830002FBF00FA06F1A140C4F1200620FA06F6C7
:1048400038BF3143A0403C1B1AE7AC421ABF05EA0F
:104850001357AF4212E050EA41061CBF52EA43062A
:10486000BFE750EA4107304661461CBF41EA0551A7
:10487000F0BD52EA430C08BFC143F0BD00204FF425
:10488000001616EB410F98BF16EB430F08BF16EB4F
:10489000410F24BFC14305E016EB430F0CBF614637
:1048A0004CEA0551F0BD91FBF2F303FB1211C0E994
:1048B0000031704770470000841A71EB030603D281
:1048C000001BB141121973414FF4001C1CEB410F46
:1048D00034BF7CEB430443E00C0DA4EB1356352EA0
:1048E00050DC45EAC323DB0A45EAC121C912B6F10F
:1048F00020050DDD63FA05F6EB4086EA030512425A
:1049000018BF45F00105C01851F100010CD213E0A9
:1049100062FA06F5F2405540F3415A40B340F34085
:104920005A408018594107D349085FEA30005FEACE
:10493000350528BF45F0010501F58011420875F1E4
:10494000004250F1000041EB045170BC4FF4001CD8
:104950001CEB410F38BF70470020090D0905704757
:104960001CEB410F10D252EA43060BD0BCEB410FB7
:1049700005D80C0DAB43661E342EB5DD02E0AB430B
:104980008018594170BC704770BC704710B5DFF893
:10499000844820B9216801200882002010BDDFF87A
:1049A000780800680068804720680A3010BD10B59C
:1049B000DFF8604820B9216801200882002010BD7E
:1049C000DFF8540800688068804720680C3010BD0C
:1049D00010B5DFF84048DFF8482820681268C17831
:1049E00040799269904721688A7A9AB1002804BF79
:1049F000087900280ED1887860B9DFF81C080068B3
:104A0000C068804720684179C1722068C17801730D
:104A1000002010BD022010BD10B5DFF8F81709689E
:104A200018B902200882002010BDDFF8F8470020E6
:104A300020807F220878104215D1487A0021820612
:104A400048BF41F0020121704006217854BF01F0B7
:104A5000FE0041F001002070DFF8BC07006800692B
:104A60008047204610BD00F07F02012AF9D000F0F7
:104A70007F000228D7D14879DFF8AC2700F00F017A
:104A8000000652F8210007D500F030001028E3D1CD
:104A9000002040F00100DEE700F44050B0F5805FF8
:104AA000DAD1002040F00100D5E7F0B5DFF8640767
:104AB000006881B0017811F07F0106D1417A01F0E0
:104AC000DF014172002001B0F0BD022901BF418821
:104AD00000290179002951D14179DFF84C4721F0B3
:104AE00080050A0654F82520DFF830371B784CBFC4
:104AF00002F0300202F440529D423FD2002A1CBF15
:104B0000807A00283AD0080654F825000BD500F02A
:104B1000300010282AD1284600F023FC30212846F6
:104B200000F0AFFB22E000F44050B0F5805F1DD1F3
:104B300048F280064BF68F776DB9DFF8F00690F8F3
:104B40002C10002000F054FC2068384080F44050C5
:104B5000304320600AE0284600F0F1FB54F82500BD
:104B6000384080F44050304344F82500DFF8A80670
:104B7000006840698047002001B0F0BD022001B00C
:104B8000F0BD30B5DFF88C06DFF89C160268DFF860
:104B90008C5681B0537923F080001C0651F82040D8
:104BA0002D784CBF04F0300404F44054A84206D2DF
:104BB000558825B9002C1CBF927A002A02D1022008
:104BC00001B030BD1B0651F8203048F2800205D5F7
:104BD00048F6BF74234083F0100304E04BF68F7453
:104BE000234083F480531A4341F82020DFF828063D
:104BF000006880698047002001B030BDDFF81426CE
:104C00001268538A20B98888C01A10820020704721
:104C10000868181870472DE9F041DFF8F84520685A
:104C200000F110063188002904BF007A04281FD142
:104C3000DFF8FC15DFF8FC050A78012A11D1DFF84E
:104C4000F835DFF8F8551B6800229BB245F81320B1
:104C50000425302202800020087020680572BDE81B
:104C6000F08110210180072520680572BDE8F081E0
:104C7000B7888F4205D30425B94288BF39460F460D
:104C800000E00225B168384688478046002000F0E1
:104C900092FB01463A46404600F0E4FB39460020CC
:104CA00000F09DFB3088DFF88C15C01B30807088C9
:104CB00038187080302008804FF44050DFF880159D
:104CC000088020680572BDE8F08130B5DFF8444502
:104CD000206881B0017845787F22114250D1092D9A
:104CE00023D1DFF83825C17852788A425ED38278A2
:104CF000002A04BF8288002A58D18172DFF8180583
:104D0000006840688047DFF83025DFF830351268EA
:104D1000002192B243F812100620DFF81825302146
:104D200011802168087201B030BD052D0BD1C1780A
:104D3000802947DA8178002901BF81880029807A9B
:104D400000283FD1DFE7032D0FD1C178012904BF2F
:104D5000818800292AD1417A41F020014172DFF88F
:104D6000B8040068C0698047CDE7012D04BFC17851
:104D700001291BD18188C9B9407A80060DD415E07C
:104D800001F07F00012804D10B2D0FD1FFF720FE89
:104D90000AE002280AD1012D02D1FFF786FE03E0C6
:104DA000032D03D1FFF7EDFE0028ACD0DFF870141F
:104DB0000968496928468847032808BF0920B0D0F8
:104DC0000028A0D021680820087201B030BD10B5BD
:104DD000DFF84044206882B04178062919D1017873
:104DE0007F22114235D18078012804D1DFF83004C8
:104DF0000068C16980E0022804D1DFF8240400685B
:104E0000016A79E0032824D1DFF814040068416ABC
:104E100072E000294AD14188002904BFC1880229D3
:104E200017D10179A9B901787F22114204BF828884
:104E3000002A38D001F07F02012A18D1DFF8E023E0
:104E40004079126892690021904710B92068807AF1
:104E500048BBDFF8CC1320680968407809698847A7
:104E6000032852D121680920087202B010BD01F058
:104E70007F010229EDD14079DFF8AC3300F00F015A
:104E800000F07002000653F82100DFF890331B7821
:104E90004CBF00F0300000F440509942D9D2002AB3
:104EA000D7D10028D5D0DFF89C1325E0082906D1FA
:104EB00000787F210842CCD1DFF88C131CE00A294E
:104EC00002BF017801F07F010129C2D1817A002956
:104ED000BFD04188002901BF01790029C18801297B
:104EE000B7D1DFF83C2340791268926900219047DE
:104EF0000028AED1DFF854130800AAD020680022A1
:104F00004282816100208847002021680B8A1A466E
:104F10004FF6FF74A24208BF092004D0022818BF30
:104F2000002B03D10820087202B010BD08780006DB
:104F300022D5C8880090009C9C4202D2009808822A
:104F400011E083420FD2B648006890F82C008342EB
:104F500038BF002005D392FBF0F300FB132010B9FB
:104F60000120B34A1070AE48006890F82C00888287
:104F700002B0BDE810404EE6032008724FF44050E6
:104F8000AF49088002B010BD30B5AB48B049A14C64
:104F900081B0006880B231F8100021680A7A4000C0
:104FA00000F18040092A00F5C04014D010F8012B10
:104FB0000A7010F8011B22685170851C35F8040B2B
:104FC00000F04AFA21684880288800F045FA2168F4
:104FD0008880A888C8800120216808722068C0885D
:104FE00010B9FFF772FE01E0FFF7F1FE8F4890F86D
:104FF0002C10002000F0FCF92068017A082906D165
:105000008F4A4FF48051118010218A4A1180007A12
:1050100009280CBF0120002001B030BD10B57D4C27
:105020002068017A022918BF042904D1FFF7F3FD93
:105030002068007A14E0062911D14178052902BFC1
:1050400001787F22114206D1C07800F097F87248AB
:105050000068006A804772480068806880470820BE
:1050600021680872714890F82C10002000F0C0F9F7
:105070002068017A082906D1714A4FF480511180C5
:1050800010216C4A1180007A092801D1012010BD3D
:10509000002010BDF0B55F4C206881B0017A022974
:1050A00018BF04294FD0032918BF052945D100F1A5
:1050B0001005A9682E88080018BF002E14D0A888F3
:1050C000864288BF06463046884707462888801BA8
:1050D0002880688830186880002000F076F9014642
:1050E0003246384600F002FA288850B154494FF44D
:1050F000405008800021002000F071F94D49302017
:1051000008802888AA882168904228BF032001D2FD
:1051100020B1052008722068007A15E00620087288
:1051200000204549454A096889B242F811003020FB
:10513000404908802068007A06E0072903D13848F2
:105140000068C0688047082021680872374890F8D6
:105150002C10002000F04CF92068017A082906D1B3
:10516000374A4FF4805111801021324A1180007A61
:1051700009280CBF0120002001B0F0BDF0B4274980
:105180000D780024002D3DD015F0030648F2800173
:1051900048F68F72244B0DD0E7B253F827C002EACD
:1051A0000C0C47EA0C0C41EA0C0C641C43F827C0B9
:1051B000761EF1D1AD0825D0E6B253F8267017401F
:1051C00037430F4343F82670641CE6B253F8267049
:1051D000174037430F4343F82670641CE6B253F878
:1051E0002670174037430F4343F82670641CE6B21D
:1051F00053F82670174037430F43641C43F826705A
:105200006D1ED9D1134940F080000860F0BC704792
:1052100000000000880E0020900E00207C0100207D
:105220008C0E0020AC0E0020005C0040940000209A
:10523000C40E0020B60E0020505C00400460004008
:10524000B40E0020194A00088D490008AF49000833
:10525000086000404C5C0040704700004FF6F87159
:105260000840DFF8DC1108607047DFF8D82152F8F9
:10527000203048F68F1C0CEA0303194342F8201033
:105280007047DFF8C02152F8203048F6BF7C0CEAA6
:1052900003035FEAC16C48BF83F01003890648BF6F
:1052A00083F0200343F4004141F0800142F82010D4
:1052B0007047DFF8902152F820304BF68F7C0CEAD3
:1052C00003035FEAC14C48BF83F48053890448BF9D
:1052D00083F4005343F4004141F0800142F8201070
:1052E0007047DFF8601151F8202048F6BF731A406C
:1052F00082F0300242F4004242F0800241F8202065
:105300007047DFF8401151F820204BF68F731A4098
:1053100082F4405242F4004242F0800241F82020E0
:105320007047DFF8201151F8202048F68F631A40AB
:1053300042F4004242F0800241F820207047DFF83A
:10534000041151F8202052040AD551F8202048F6C3
:105350008F731A4042F4404242F0800241F820200C
:105360007047DFF8E01051F8202052060AD551F8B6
:10537000202048F68F731A4042F4004242F0C002E7
:1053800041F820207047DFF8B820126892B202EB93
:10539000C000DFF8B4204908490042F810107047F7
:1053A000274A126892B202EBC000284A4908490015
:1053B00042F8101070472249096889B201EBC00019
:1053C000214951F8100080B270471D49096889B21F
:1053D00001EBC0001D4951F8100080B27047184A17
:1053E000126892B202EBC000194A42F810107047DE
:1053F000134A126892B202EBC000164A3F2902EB30
:1054000040000ADB4A091F23194208BF521E12043A
:10541000910941F40041016070474A08C90748BF3B
:10542000521C12049109016070470549096889B24C
:1054300001EBC000074951F810008005800D70474E
:10544000505C0040005C004000600040086000408C
:10545000046000400C6000400106090C41EA102085
:1054600070470000490001F18043511C491003F5C9
:10547000C04300D1704730B411F0030200F00B803C
:1054800010F8014B10F8015B44EA052423F8024BA5
:105490009B1C521EF4D1890800F0268010F8012BC5
:1054A00010F8014B42EA042223F8022B9A1C10F850
:1054B000013B10F8014B43EA042322F8023B921C03
:1054C00010F8013B10F8014B43EA042322F8023B99
:1054D000921C10F8013B10F8014B43EA042322F818
:1054E000023B931C491ED9D130BC70474900521C65
:1054F00001F18041521001F5C0411DD012F00303AB
:1055000000F0068051F804CB20F802CB5B1EF9D1E5
:10551000920811D051F8043B20F8023B521E51F87A
:10552000043B20F8023B51F8043B20F8023B51F8C1
:10553000043B20F8023BEDD17047000010B500F0AD
:1055400086FBDFF8E04504EB80004069A06500F0D1
:105550007EFB04EB8000C069E06500F078FB0FF291
:10556000E85151F82000206600F071FB04EB800048
:10557000406A606600F06BFB0FF2D45151F82000D6
:10558000A06600F064FB04EB8000C06AE06600F0F7
:105590005EFB0FF2C45151F82000206700F057FB6A
:1055A00004EB4000808EA08100F051FB001980794F
:1055B000207000F04CFB04EB8000806B606700F013
:1055C00046FB0FF29C5151F82000A06700F03FFB12
:1055D00004EB4000B0F84000E08100F038FB001917
:1055E000007A607000F033FB04EB8000406CE067F1
:1055F00000F02DFB0FF2705151F82000C4F880002C
:1056000000F025FB04EB4000B0F84C00208200F0D5
:105610001EFB0019807AA07000F019FB0FF25851A0
:1056200051F82000C4F8840000F011FB04EB800066
:10563000006DC4F8880000F00AFB0FF2345151F8F5
:105640002000C4F88C0000F002FB0FF2345151F836
:105650002000C4F8900000F0FAFA0FF22C51405CE0
:10566000E07000F0F4FA0FF22451405C207100F079
:10567000EEFA0FF21C51405C607100F0E8FA18B1CC
:1056800000F0E5FA01280DD101214FF4804000F02F
:10569000F7FAD4F88400012140F0060000F0DEFAA9
:1056A000002010BD4FF0FF3010BDDFF87804D0F8B7
:1056B0008C10D0F8880089B200F022BB30B58BB0D6
:1056C0000446FFF73BFF10F1010F00F0BA80DFF84E
:1056D00054542A78A989E86E00F022FB6A78E98997
:1056E000686F00F01DFBAA78298AE86F00F018FBAC
:1056F000A96E686E012289B200F009FBA86E0090C5
:1057000000A901208DF8040000208DF80500ADF8F7
:105710000600686E00F0C4FAA96E686E002289B2B5
:1057200000F0F5FAD5F88000009000A902208DF86D
:10573000040003208DF8050000208DF806000120EC
:105740008DF80700E86F00F0ABFA02208DF8070033
:1057500000A9A86F0090686F00F0A2FA01208DF8F0
:10576000070000A9286F0090E86E00F099FA296EF2
:10577000009101208DF8040001220020ADF8060000
:1057800089B203208DF80500E86D00F0C0FAE86DDD
:1057900000A900F085FAD5F88C00009000A900203F
:1057A0008DF8040002208DF80700D5F8880000F07D
:1057B00077FA0020ADF8140005A94FF48270ADF817
:1057C000160000200690ADF81C004FF40070ADF8F4
:1057D0001E000820ADF820000020ADF822000720B0
:1057E000ADF82400A86D00F0AFFAA86D012100F01B
:1057F000C7FA012C24D12979E87800F0E1FAD5F82C
:105800009000039000208DF8100008208DF8110002
:1058100001208DF8120003A800F0E8FAD5F89000F6
:1058200000F018FB68798DF8080000208DF8090059
:105830008DF80A0001208DF80B0002A800F023FB70
:1058400000200BB030BD10B5DFF8D842A16E606EFD
:10585000002289B200F05BFA052000F073FBA16E14
:10586000606E012289B200F052FABDE810400520B6
:1058700000F068BB00B5DFF8AC02D0F88C10D0F8AF
:10588000880081B089B200F03BFA012818BF0020DF
:1058900001B000BDDFF88C0290F90500012100F095
:1058A0001F029140DFF88022400942F82010704723
:1058B000DFF8700290F90500012100F01F0291400D
:1058C000DFF86822400942F820107047DFF85402E0
:1058D000D0F8900000F0BEBA2DE9F0478A4684B0B7
:1058E0000FF24C2180460CC902A800260CC072B6EB
:1058F0008C4F396EF86D002289B200F008FA02ACC4
:105900000DF1000905252178B86D00F045FAB86D54
:10591000022100F043FA0028F9D0B86D012100F00F
:105920003DFA0028F9D0B86D00F034FA09F8010BFF
:10593000641C6D1EE7D19DF80000022824D19DF85B
:1059400004009DF8031051EA00241DD0A245B8BF01
:105950005446012C18DBB86DFF2100F01DFAB86D1C
:10596000022100F01BFA0028F9D0B86D012100F0E7
:1059700015FA0028F9D0B86D00F00CFA06F8080006
:10598000761CF6B2A642E6DB396EF86D012289B2CA
:1059900000F0BDF962B6304604B0BDE8F0872DE9ED
:1059A000F34F87B014461D460FF28C115D4F0CC9A2
:1059B00005A80FF28C110CC00CC903A84FF0010808
:1059C0000CC097F90500584A00F01F0108FA01F1D0
:1059D000400942F820104FF00009D7F88C000090E1
:1059E0008DF8048003208DF805008DF806900220C4
:1059F0008DF8070000A9D7F8880000F051F9D7F812
:105A00008C10D7F88800012289B200F080F9CDF817
:105A1000089003E000BF0298401C02900298B0F585
:105A2000D27FF7DB396EF86D002289B200F06FF992
:105A300005AE0DF10C0A4FF0050B3178B86D00F092
:105A4000ABF9B86D022100F0A9F90028F9D0B86DC2
:105A5000012100F0A3F90028F9D0B86D00F09AF9FF
:105A60000AF8010B761CBBF1010BE6D1D7F88800D0
:105A70008DF8049000A900F013F99DF80C0002289D
:105A800038D19DF80D002919884230DBB4B1079E4A
:105A90003178B86D00F080F9B86D022100F07EF920
:105AA0000028F9D0B86D012100F078F90028F9D06C
:105AB000B86D00F06FF9761C641EE9D1E5B1089C61
:105AC0002178B86D00F068F9B86D022100F066F930
:105AD0000028F9D0B86D012100F060F90028F9D054
:105AE000B86D00F057F9641C6D1E05D0E8E76FF043
:105AF000010901E04FF0FF39396EF86D012289B2DA
:105B000000F005F997F90500084A00F01F0108FAAE
:105B100001F1400942F82010484609B0BDE8F08F75
:105B2000000000000000002080E100E000E100E053
:105B30000B000000000000000A0000000000000050
:105B4000AA0000000000000000100000001000008B
:105B50000020000000200000008000000080000005
:105B60000040000000400000002000000020000075
:105B70000004000000040000040000000200000017
:105B80000004000000040000020100000A0A0000F6
:105B90002828000010B584B00121082000F05EF82C
:105BA00001208DF8080000208DF80B0003208DF8EF
:105BB000090000208DF80A000420019001A9254C5D
:105BC000204600F06DF8A08A40F00400A0825FF04B
:105BD00000008DF800009DF8000008BB9DF8000053
:105BE000401C8DF800009DF80000C8B99DF8000029
:105BF000401C8DF800009DF8000088B99DF8000059
:105C0000401C8DF800009DF80000002808D19DF888
:105C10000000401C8DF800009DF800000028DDD039
:105C2000208A0D490006800E00F0010080F001007E
:105C3000087001A900208DF80800204600F030F817
:105C4000A08A4FF6FB710840A08204B010BD024844
:105C500000787047000C0240C30E00200D4A002956
:105C6000116814BF084321EA0000106070470A4A17
:105C70000029116814BF084321EA00001060704732
:105C8000064A0029116814BF084321EA0000106089
:105C9000704700001C38024020380240243802407F
:105CA000F0B40022002301240D6894402540A54251
:105CB00020D106680F7903259D40ED432E409F407B
:105CC0003E4306600E79012E18BF022E0CD1866865
:105CD0004F792E409F403E438660868826EA040422
:105CE0008E79964034438480C4682C40CD799D40A1
:105CF0002C43C460521C9B1C102AD4D3F0BC7047A8
:105D0000008A0022084218BF0122104670470AB1DB
:105D10000183704741837047828A51408182704776
:105D2000CB0800EB830001F007018900036A4FF004
:105D30000F0C0CFA01FC23EA0C03036202FA01F1D6
:105D4000036A19430162704702880B8802F44152CA
:105D50001A434B881A438B881A43CB881A430B8902
:105D60001A434B891A438B891A43CB891A43028001
:105D70004FF2FF73828B1A408283098A0182704737
:105D80000029018812BF41F040014FF6BF72114057
:105D900001807047808970478181704700890022A7
:105DA000084218BF01221046704700000D49002824
:105DB000086812BF40F001004008400008607047CA
:105DC00030B401F0030221F00301074B9200CC58DC
:105DD0000F259540AC43CC509040CC582043C85040
:105DE00030BC7047040001400800014030B4016835
:105DF0008279CB431F4932B30A46146823401360AB
:105E000053680468A34353600379CC18236805687A
:105E10002B43236093680468A3439360D3680468AA
:105E2000A343D36043790568102B08D191682943B7
:105E30009160D16800680843D06030BC7047CC18CE
:105E40002068284303E000790C182068184020607F
:105E500030BC7047084908607047074A1268002143
:105E6000024218BF01210846704703490860704785
:105E70000000000000040140140401401C490843D4
:105E80001C4908607047F0B40378C4781A460121B1
:105E9000F4B1184B1B68447803F4E063C3F5E06386
:105EA0001B0AC3F10405AC4085780F2626FA03F7D8
:105EB00007EA05032343104C1B011355007800F03B
:105EC0001F0291400D4A400942F82010F0BC704773
:105ED00003F01F0001FA00F00949520941F82200BD
:105EE000F0BC7047074A11400843074908607047F3
:105EF0000000FA050CED00E000E400E000E100E045
:105F000080E100E080FFFF1F08ED00E0114801681C
:105F1000491C0160704710B5EFF3108472B604207D
:105F200000F01AF847F6FF4000F020F8012000F0DA
:105F300020F8012000F030F884F3108810BD0548E7
:105F40000068704703490A680B689B1A8342FBD3B9
:105F500070470000A00E00201449042808680CBFF8
:105F600040F0040020F00400086070471049086009
:105F7000704701280D4904D1086840F0010008600D
:105F8000704710F1020F04D1086840084000086013
:105F9000704700208860704704490028086814BFD3
:105FA00040F0020020F002000860704710E000E0BE
:105FB00014E000E0F0B58BB04FF440514FF00060BA
:105FC000FFF790FFFFF7E6FD00F014FA00F027FA64
:105FD000002000F071FB002000F07EFB032000F0A9
:105FE0007BFB042000F078FB4FF47A71022000F074
:105FF00011FC022000F070FC6421042000F00AFC77
:10600000042000F069FC41F28831062000F002FC17
:10601000062000F061FC012000F0ECFC012000F003
:1060200051FB012000F04BFB4FF4C060FFF726FF4F
:10603000FFF771FF4FF4FA70FFF784FF8D4800F00F
:10604000E7FC64248AA5284600F0F4FC4620FFF70C
:1060500079FF641EF7D100F0FFFC0120FFF72EFB53
:10606000FFF7F1FB0FF21C210CC900A806210CC0A0
:1060700000AA002000F08AFE18B10FF2102000F0F4
:10608000D9FC00F0D8FE18B10FF21C2000F0D2FCB1
:1060900000AB0DF1020201A9012000F0C2FF18B10E
:1060A0000FF2182000F0C6FCFFF7D1FD01460FF2F9
:1060B000202000F0BFFC01F04BF800280CBF0FF2CD
:1060C00040200FF25C2000F0B5FC0421012000F01C
:1060D0008EFE0FF298240FF278250FF26426664F99
:1060E00000F042FD78688007FAD5B6E80E1007A8E0
:1060F000103EA0E80E10284600F09CFC0020069000
:10610000059004900390A02207A8029000230D2080
:10611000019011460020009000F0B9FF0146204692
:1061200000F088FC786820F002007860D8E730B58D
:106130000446514881B0426842F001024260018049
:106140000320012100F010FB0FF2282000F072FC68
:106150000FF238256179284600F06CFC2179284639
:1061600000F068FCE178284600F064FCA17828463D
:1061700000F060FC6178284600F05CFC21780FF2AA
:10618000142001B0BDE8304000F054BC10B500212F
:10619000032000F0E9FA384C606820F001006060EC
:1061A0000FF2F81000F046FC606840F002006060FA
:1061B000606820F004006060606820F480706060B7
:1061C000606820F400706060606820F48060606047
:1061D000606820F40060606010BD411C00780428F5
:1061E00000D0704710B50878052804D03E2805D0A7
:1061F000FF280ED010BDBDE81040C7E7881C01780D
:10620000012933D1401CBDE81040B0F80110401DF9
:106210008DE7881C0188B1F5006F1BD040F6014264
:10622000914223D1841C21796088621D00F0E0FF37
:1062300001211248FFF770FD114960880988491C47
:10624000884204BF6079452810D1BDE81040022083
:1062500000F026BBB0F80900BDE81040002814BFCC
:106260000FF248100FF2681000F0E4BB10BD000000
:106270002E000000A57600085C0100200008024006
:10628000980E0020AA0000E180020000536574749B
:10629000696E672042445F41444452206661696CE4
:1062A00065642E0A00000000474154545F496E693E
:1062B00074206661696C65642E0A00004741505F76
:1062C000496E6974206661696C65642E0A0000007D
:1062D0005345525645523A20424C4520537461630F
:1062E0006B20496E697469616C697A6564202870F5
:1062F0006C6174666F726D3A202564290A0D000086
:1063000053657276696365206164646564207375A2
:10631000636365737366756C6C792E0D0A000000FB
:106320004572726F72207768696C65206164646978
:106330006E6720736572766963652E0D0A00000032
:1063400009426C75654E52475F43686174000000F6
:1063500047656E6572616C20446973636F76657220
:1063600061626C65204D6F646520000025640A0D34
:1063700000000000436F6E6E656374656420746F87
:10638000206465766963653A000000002530325864
:106390002D000000253032580A0D00004469736357
:1063A0006F6E6E65637465640A0D00003E20436F76
:1063B0006E6E656374696F6E20706172616D657475
:1063C0006572732072656A65637465642E0A0000E5
:1063D0003E20436F6E6E656374696F6E20706172EC
:1063E000616D657465727320616363657074656463
:1063F0002E0A000000B581B001213F20FFF72EFCDE
:1064000001210120FFF733FCDFF874020321016052
:10641000DFF8701281600021416001B000BD70B5ED
:1064200082B003208DF804004FF6FF7400208DF831
:10643000070000944FF0FF30DFF84C62DFF84C5259
:10644000C6F80004C5F80004C5F8000800A940F229
:10645000FF700090DFF83802FFF722FC4FF6E7707C
:10646000009000A9DFF82C02FFF71AFC009400A9A5
:106470003046FFF715FC009400A92846FFF710FCF2
:1064800002B070BD01214FF40000FFF7F9BB00B569
:1064900081B04FF4C060FFF7F1FC14208DF80000CC
:1064A00001208DF8010000208DF8020001208DF8F8
:1064B000030000A8FFF7E7FC01B000BD00B1012018
:1064C000FFF774BC00B581B00121734801F046F8B4
:1064D00072490120087001B000BD7148017801299E
:1064E00000D1704710B5D0F8D817B1F5FA6F04BFD6
:1064F0000021C0F8D817D0F8D417D0F8D8278A428E
:1065000002D10021017010BDD0F8D827914239BFC7
:10651000D0F8D817C1F5FA61D0F8D827891A4129DF
:10652000D0F8D83707D3D0F8D82740324024C0F865
:10653000D827403906E0D0F8D8270C468918C0F88B
:10654000D8170021C0F8DC179BB201210170181880
:10655000A2B2C021001DFEF785FFA1B20120FEF707
:106560003EFFBDE810400120FEF7BBBE4C49D1F80C
:10657000D42753181871501CB0F5FA6F08BF0020CB
:10658000C1F8D407704747484168026840698218DB
:1065900000D1704730B444480023841C150F0A2DE5
:1065A00034BF3035373525701201002565705B1C0E
:1065B000150F0A2D34BF30353735A570120100256F
:1065C000E5705B1C241D082BE8DB0A0F0A2A34BF88
:1065D00030323732827409010A0F0A2A34BF30324E
:1065E0003732027509010A0F0A2A34BF30323732B6
:1065F0000901090F0A29C5744575C57534BF3031C5
:10660000373145768275017630BC704730B4244905
:10661000D1F8D4374FF6FF72D1F8D847641EA342A1
:1066200006D0B3F5FA6F04BFD1F8D847002C03D1D8
:106630001446621E012CEFDA9AB90FF270020DE0D7
:10664000D1F8D4375D185B1C2C71C1F8D437B3F581
:10665000FA6F04BF0023C1F8D437521C1478002C01
:10666000EED1D1F8D4275318521C1871C1F8D42791
:10667000B2F5FA6F04BF0022C1F8D42730BC7047CE
:10668000283802400100001000080240000C0240BF
:10669000000002400004024000040040C20E00203E
:1066A000800100205000F81F080100200A4F5645C5
:1066B00052464C4F570A000004490860704704498D
:1066C00008607047034908607047000010000E42E0
:1066D00028000E4224000E4230B5042883B0044640
:1066E0000ED8DFE800F0030507090B00012006E0E3
:1066F000022004E0042002E0102000E020200090AE
:1067000001208DF804000320022C8DF8050005D12E
:1067100000A93D48FFF7C4FA03B030BD3B4D00A9C6
:106720002846FFF7BDFA042C1BD8DFE804F0161248
:106730000B070300A88A40F0200011E0A88A40F06F
:1067400010000DE03048818A41F00401818203B0DD
:1067500030BDA88A40F0020002E0A88A40F00100A3
:10676000A88203B030BD0000012927D1042849D8F0
:10677000DFE800F003090F181E00254801884FF6D6
:10678000FE7211403DE0224801884FF6FD72114033
:1067900037E01F48B0F800144FF6FB721140A0F824
:1067A000001470471A4801884FF6EF72114028E034
:1067B000174801884FF6DF72114022E011BB042810
:1067C00020D8DFE800F003080D151A0010480188F2
:1067D00041F0010115E00E48018841F0020110E08E
:1067E0000B48B0F8001441F00401A0F80014704701
:1067F0000748018841F0100103E00548018841F095
:106800002001018070470000000C02400008024097
:106810001408024030B5801E052883B00C462AD8E3
:10682000DFE800F003290A131C2201210120FFF7F1
:1068300027FA4FF080451EE001210420FFF720FADF
:106840004FF4006000F1804515E001210820FFF7BA
:1068500017FA4FF4406000F180450CE00121102050
:10686000FFF70EFA5E4D06E001212020FFF708FA3F
:106870005B4800F5806549F64040ADF800000194A2
:106880000020ADF80200ADF8080000A9284600F08D
:1068900023FE01220121284600F058FE03B030BD3E
:1068A000801E052816D8DFE800F003150B150D0F24
:1068B0004FF080410020486201214FF0804007E006
:1068C000484802E0464800E0474800214162012173
:1068D00000F032BE7047000000B5801E052881B070
:1068E0000FD8DFE800F0030E0507090B1C2006E0B7
:1068F0001E2004E02E2002E02B2000E02C208DF84A
:10690000000002208DF8010001208DF802008DF8B2
:10691000030000A8FFF7B7FA01B000BD00B581B0D1
:1069200001214FF0804000F01CFEE0B101214FF04A
:10693000804000F020FE00214FF0804000F0FCFD80
:10694000284800214162012100F0F6FD2448002181
:106950004162012100F0F0FD01B05DF804EB20215F
:106960002248FFF7D9B901B000BD10B51D4C012177
:10697000204600F0F6FD48B10121204600F0FBFD65
:10698000BDE8104020211948FFF7C6B910BD10B569
:10699000134C0121204600F0E4FD68B1012120469E
:1069A00000F0E9FD00210F4800F0C6FD2046BDE8DB
:1069B0001040002100F0C0BD10BD10B50A4C0121EF
:1069C000204600F0CEFD50B10121204600F0D3FD5D
:1069D0000021204600F0B0FD05490120086010BDEF
:1069E0000010004000080040001400400008024071
:1069F000A40E0020DFF814100028086814BF40F02F
:106A0000080020F00800086070470000003C0240C9
:106A100010B50446FFF736FDFFF739FD00F0AEFD77
:106A20000348046010BDFFF7A1BD014A126810477A
:106A3000A80E00200EB400B582B003A90091024652
:106A400000AB0121034878440A30FCF753FB06BC35
:106A50005DF810FB0D15000010B5DFF8204304F1C0
:106A6000100000F09BFD04F1180000F097FD04F108
:106A7000200104F1100000F0A2FD04F1A80104F1CE
:106A8000100000F09CFD04F5987104F1100000F076
:106A900096FD04F5DC7104F1100000F090FD04F5A2
:106AA000107104F11000BDE8104000F088BD70B511
:106AB000DFF8C84200F10803A360002163782BB916
:106AC000A38003E0042B4ED103236370A388802BA3
:106AD00049DAA3885D1CA580A56866785B5D002EF9
:106AE000F0D0032E08BF0623EFD0042E08BF0523E5
:106AF000EBD0052E08BF0723E7D0072E08BF0823D9
:106B0000E3D0082E04D1B5F8032000210923DCE7E7
:106B1000062E03D11A4600210923D6E7092ED5D126
:106B2000491C89B292B29142D0D30021617000F128
:106B300008014A1C0978042908D111780E2918BFC8
:106B40000F2903D0014604F1180002E0014604F1C8
:106B5000100000F034FDE06828B1A188A068E26868
:106B6000BDE87040104770BD10B5A2B00020009085
:106B7000FEF790FEDFF8044204F1180000F011FD6A
:106B8000B8B900A904F1180000F020FDFEF790FE4E
:106B900000980830FFF721FBFEF77CFE009904F116
:106BA000100000F00CFD04F1180000F0FAFC0028C1
:106BB000E7D0207848B90DE0802101A8FEF78CFECF
:106BC000C0B210B101A8FFF708FBFEF753FE002882
:106BD000F2D12070FEF76CFE22B010BD10B582B06D
:106BE00000200090FEF772FEDFF8904106E0009969
:106BF00004F1100000F0DCFCFEF768FEFEF755FD26
:106C0000C8B104F1100000F0CCFC80B900A904F177
:106C1000100000F0DBFC009880210830FEF75CFEDD
:106C2000C0B20028E3D00098FFF741FFE4E701205D
:106C30002070FEF74BFE02B010BD00B581B0FEF72C
:106C400029FEDFF83C110120887001B000BD2DE95C
:106C5000F047044684B06088DFF8206188468005EC
:106C60002188800D40EA8125DFF8180100680A219B
:106C7000B0FBF1F70020B0700322DFF80C01F060E8
:106C800060882188D4F80890D4F80CA08DF806A06C
:106C90008005800D40EA8120ADF8040001A90120A3
:106CA0008DF800000DF1010000F09FFC5FFA8AF3FF
:106CB0000422494600A800F0A9FCB8F1000F37D122
:106CC00007B90127394602A800F0BEFC06E00878A3
:106CD00000284AD10020B070FEF7EAFD02A800F0BB
:106CE000BAFC002841D1B0780028F7D0B06802463D
:106CF00011780429EED1C11CB0885278C01E0E2A2A
:106D00001ED00F2A04D0102A2FD03E2A20D0E1E72F
:106D10004A88ADB2AA42DDD162680F2AD7D1626932
:106D20009042C8BF104660610246206900F05DFCD9
:106D30000020F060FEF7BCFD002004B0BDE8F08745
:106D4000B1F80120ADB2AA42C4D1C91CC01EE6E709
:106D50000A7863689A42BDD16269401E9042C8BFFA
:106D6000104660610246491CDFE70020F060FEF734
:106D70009FFD4FF0FF3004B0BDE8F08760090020B0
:106D800060090020947F00083B6C000810B50C4699
:106D90001146A21C812AA8B0A8BF422025DA8DF88E
:106DA0001C008DF81D4022460DF11E0000F01DFC58
:106DB0001822002101A800F01EFC3F20ADF80400BD
:106DC00000210C20ADF8060007A80390A01CC0B25B
:106DD000049000A805900120069001A8FFF737FF56
:106DE00000284CBFFF209DF8000028B010BD00B562
:106DF00089B08DF804008DF805101822002102A832
:106E000000F0F9FB3F20ADF8080000210F20ADF89D
:106E10000A0001A804900220059000A80690012015
:106E2000079002A8FFF713FF00284CBFFF209DF832
:106E3000000009B000BD00B587B01822002101A8EC
:106E400000F0D9FB3F20ADF80400002140F2011012
:106E5000ADF8060000A805900120069001A8FFF7F4
:106E6000F6FE00284CBFFF209DF8000007B000BDD3
:106E700070B58CB001288DF81C0014460CBF02269A
:106E800010261D4632460DF11D0000F0AEFB701CB1
:106E900007A9C0B203224454441CE4B200A86554BC
:106EA000002100F0A8FB1822002101A800F0A3FB9C
:106EB0003F20ADF8040000214FF48170ADF80600CA
:106EC00007A80390601CC0B2049000A8059003209E
:106ED000069001A8FFF7BBFE002848BFFF2007D49B
:106EE0009DF8000020B91099BDF80100088000202D
:106EF0000CB070BDF1B58EB00D4616461F4602228D
:106F00000EA907A800F071FB07AC012DA570314652
:106F10000CBF022510252A460DF11F0000F065FB6D
:106F2000E81CC0B2411C0755C9B214980855491C49
:106F30001598C9B203220855491C1698C9B20855BC
:106F4000491C1798C9B24D1C0855EDB21898285520
:106F5000002100A800F04FFB1822002101A800F03A
:106F60004AFB3F20ADF8040000214FF48270ADF8D9
:106F7000060007A80390681CC0B2049000A8059002
:106F80000320069001A8FFF762FE002848BFFF20FB
:106F900007D49DF8000020B91999BDF801000880B8
:106FA00000200FB0F0BD33B51C46A01D8128A7B04E
:106FB0001546A8BF422032DA022227A907A800F00E
:106FC00014FB022228A90DF11E0000F00EFB2C99E3
:106FD0008DF820508DF8214022460DF1220000F05E
:106FE00004FB1822002101A800F005FB3F20ADF8AA
:106FF000040000214FF48370ADF8060007A8039049
:10700000A01DC0B2049000A805900120069001A820
:10701000FFF71DFE00284CBFFF209DF8000029B09F
:1070200030BD70B58AB00C468DF8080015461E4676
:107030000722002100A800F0DEFA1822002103A890
:1070400000F0D9FA3F20ADF80C0000218A20ADF8FD
:107050000E0002A805900120069000A807900720C6
:10706000089003A8FFF7F3FD002848BFFF200CD4C9
:107070009DF8000048B9BDF801002080BDF803006C
:107080002880BDF80500308000200AB070BD76B5BC
:1070900092B0199D1B9C61190E3129291E4628BFEB
:1070A000422053D28DF81C00022212A90DF11D00BE
:1070B00000F09BFA022213A90DF11F0000F095FACF
:1070C00018981A998DF822008DF821608DF82350B8
:1070D0002A4609A800F089FA05F10800C0B207A9FC
:1070E000451C4454EDB21C9907A82246281800F00C
:1070F0007CFA6419E4B207A802221DA9201800F046
:1071000074FAA41CE4B207A802221EA9201800F0F9
:107110006CFA1822002101A800F06DFA3F20ADF8AA
:10712000040000218320ADF8060007A80390A01CEE
:10713000C0B2049000A805900120069001A8FFF7B6
:1071400086FD00284CBFFF209DF8000014B070BDE4
:1071500030B593B00FF21C213CC90EA80FF22421C8
:107160003CC03CC90AA80FF22C213CC03CC906A86F
:107170000EA93CC07D4C0094072301220220FFF79A
:1071800077FE68BBA01C05901423012004900AAA76
:107190001020039002210020029001901020009006
:1071A0002088FFF7A7FED8B9201D059014230120E1
:1071B000049006AA102003900221012002900020D2
:1071C00001900C2000902088FFF794FE40B9A2881F
:1071D00061880FF2D010FFF72DFC002013B030BDF6
:1071E0000FF20020FFF726FC472013B030BD00004F
:1071F0002DE9F04784B081460E461546FEF79FFE06
:1072000004460FF20420FFF715FC0FF20828214670
:107210004046FFF70FFC554FB888401C814540F0B1
:107220008F800FF2F810FFF705FC56B14FEA050901
:107230000FF22C1A19F8011B5046FFF7FBFB761EC4
:10724000F8D148A0FFF7F6FB2878302840F084807A
:107250000FF2D410FFF7EEFB68784F2820D10FF221
:10726000E410FFF7E7FBAC7895F803802E796D7991
:107270000FF2EC100095334642462146FFF7DAFB49
:107280004FEA084000EB046000EB06202C18214672
:107290000FF2E410FFF7CEFBBC6004B0BDE8F0874E
:1072A000542830D10FF2DC10FFF7C4FB0FF2F010BE
:1072B000FFF7C0FB21464046FFF7BCFB42208DF89C
:1072C0000000224654208DF8010027A102A800F0FA
:1072D000CFF9042202A90DF10200FCF7D7FE0A2023
:1072E0008DF8060000208DF807004FF4FA70FEF7C5
:1072F00029FE00A8FFF79EFB082100A800F0D2F9A4
:1073000004B0BDE8F087452826D10FF2A010FFF7A2
:1073100091FBAC78EF782E796D790220FFF7C0FAF7
:107320000FF2A410FFF786FB380400EB046000EBBB
:10733000062029184046FFF77DFB04B0BDE8F08722
:107340007888801C814504BF2878012804D108482A
:10735000016841F00401016004B0BDE8F08700005D
:10736000256300000D0A0000256C7500940E0020B6
:1073700060010020669A0C200008969EE2119EB1E2
:10738000E0F273D9669A0C200008969EE2119EB135
:10739000E1F273D9669A0C200008969EE2119EB124
:1073A000E2F273D94368617420536572766963654C
:1073B0002061646465642E0D0A545820436861722C
:1073C0002048616E646C6520253034582C2052585A
:1073D00020436861722048616E646C6520253034FA
:1073E000580D0A004572726F72207768696C6520CB
:1073F000616464696E6720436861742073657276A6
:107400006963652E0A000000676F745F74696D65BB
:107410003A200000256C750A0D0000007265636952
:10742000657665643A200000617420696E64657851
:107430002030207265636569766564206120300ABA
:107440000D000000617420696E646578203120723F
:107450006563656976656420616E204F0A0D0000E2
:107460006E756D6265722069733A20256325632508
:107470006325630A0D00000074696D653A20256C70
:10748000750A0D00617420696E6465782031207280
:1074900065636569766564206120540A0D0000000B
:1074A000627374696D653A200000000061742069A0
:1074B0006E64657820312072656365697665642045
:1074C000616E20450A0D00004576656E742061747A
:1074D0002074696D653A2000B0F1804F02881CBFAE
:1074E000104B984205D0104B98421CBF0F4B98424E
:1074F00004D14FF68F731A404B881A430C4B9842B5
:107500001CBF0C4B984204D04FF6FF431A400B8926
:107510001A4302804A68C26209880185012181827A
:10752000704700000004004000080040000C0040CC
:1075300000100040001400400029018812BF41F0F3
:1075400001014FF6FE72114001807047002A8289C6
:1075500014BF114322EA010181817047C9430182AE
:107560007047038A8089002208400B421CBF002814
:10757000012210467047C943018270470448054AFA
:10758000C06102210172426203490162086800473A
:107590006C0E0020C40000209400002000604060B9
:1075A00070470168814201D1012070470020704777
:1075B00002680A60486001600868416070470860BE
:1075C00042684A60416048680160704702680A602A
:1075D0000068436802681A604268006842600020E0
:1075E0000A68106009684860704710B50446FCF7E7
:1075F0004DFD204610BD10B5044610460A46014612
:10760000204600F0B9F8204610BD0000F0B5044651
:107610000C4800680D460A2183B0B0FBF1F1164614
:107620001F4600A800F010F8FBB2F2B2294620462F
:10763000FEF7B5F920B100A800F00DF80028F3D04E
:1076400003B0F0BD947F000810B504466160FEF7FA
:1076500076FC206010BD10B50446FEF770FC226871
:107660006168801A401C81428041C00F10BD00003B
:107670000CB41CB5044604A801900A46009401AB62
:1076800000A9074878441830FBF734FD009A002120
:10769000117000285CBF0098001B16BC5DF80CFB45
:1076A0009BC8FFFF2DE9F04F8A460026BAF1000F74
:1076B00083B08146DFF8B0B0DFF8B0802C4C4ED0FC
:1076C0002088B0F5FF7FC4BF00202080218816F8F5
:1076D00009000919087116F80900FFF7A4F92088B4
:1076E000401C208080B20019C1780D2918BF0A29DA
:1076F00031D10A21C1701BA0FFF79CF92088012815
:107700001FBF002502191571002822D02088471BB1
:1077100018480068152FA8BF142700EB8001490006
:1077200001A8FFF791FF201D28180090FBB2B8F8C0
:107730000010BBF800000022FFF735FC642804D1DC
:1077400001A8FFF788FF0028EDD020887D19854229
:10775000DCDB00202080761CF6B25645B0DB03B09F
:10776000BDE8F08F0D0A0000940E0020960E002058
:10777000280C0020947F000862F30F2262F31F425E
:10778000401810F0030308D0C91A1FD3DB0748BF05
:1077900000F8012D28BF20F8022D130030B4144644
:1077A0001546103928BF20E93C00FAD8490728BF00
:1077B00020E90C0048BF40F8042D890028BF20F8BC
:1077C000022D48BF00F8012D30BC7047C91818BF02
:1077D00000F8012DCB0728BF00F8012D70470000ED
:1077E00000B581B0FEF7CFFE7949096800208872A4
:1077F00000F002F900F018F900207649086001B0A5
:1078000000BD00B57248026881B0002191727249D2
:107810000268C979517200210068C1720020FDF729
:107820001DFD4FF400710020FDF71FFD1021002009
:10783000FDF727FD40210020FDF7B2FD802100204B
:10784000FDF7A1FD0020FDF76CFD644890F82C10B9
:107850000020FDF7CDFD0020FDF753FD00210120A4
:10786000FDF703FDC0210120FDF78DFD2021012042
:10787000FDF707FD00210120FDF71BFD4FF4C0615E
:107880000220FDF7F2FC4FF480710220FDF77BFD32
:1078900000210220FDF70DFD20210220FDF7F1FC63
:1078A00000210320FDF7E1FC4FF488710320FDF770
:1078B00077FD40210320FDF79BFD4FF4405103204D
:1078C000FDF7F7FC00210320FDF7DBFC0020FDF7AE
:1078D00055FC40490120086001B000BD4048807A55
:1078E00010B13C490520086070473A4904200860FF
:1078F00070477047704700B5212881B009D13448DE
:107900000068007800F07F00212817D10FF299015C
:1079100012E0202812D12E4932480968097801F076
:107920007F01212904D020210170022001B000BD77
:1079300020220FF289010270080002D1022001B05A
:1079400000BD2348006881610022428200208847F0
:10795000002001B000BD1E490968097801F07F01CF
:10796000212905D1022818BF222801D10020704703
:10797000022070471C49FDF741B91C49FDF73EB98B
:1079800013490968C978052901DB00207047184AA6
:1079900002EBC101FDF732B909B9022801DB02206F
:1079A000704700207047000028B90949096808207D
:1079B0000882002070470F487047000028B904492A
:1079C000096808200882002070470A4870470000B4
:1079D000880E0020BC0E0020D47C000894000020FB
:1079E0006C0E0020C60E00206C01002074010020E7
:1079F000E80000206401002000B581B00120FEF7FE
:107A00005DFD0748074A01210160002101604160D6
:107A10004FF4E05111800160002001B000BD000072
:107A2000405C0040C00E00200448054A002141602F
:107A30004FF406411180016000207047405C004017
:107A4000C00E002070B500F07F050C462846FDF7FB
:107A5000ECFC06462846FDF7B8FC014632462046B7
:107A6000FDF744FD304670BD2DE9F04F81B0002098
:107A7000ADF8000048F28004474DDFF82081484E01
:107A8000DFF82091DFF820A140F68F7B4BF6BF771F
:107A900026E000BF56F82010ADF80010BDF8001029
:107AA00009040AD556F820100BEA010146F8201007
:107AB00008EB800050F8040C8047BDF80000000679
:107AC0000ED599F8000056F8201048F60F721140B4
:107AD00046F82010354901EB800050F8040C80472F
:107AE000706CAAF80000000453D5BAF8000010F03A
:107AF0000F0089F80000CDD130682880288800F078
:107B000030006880288800F4405028803068384071
:107B100080F4005080F0200020433060BAF800006C
:107B2000C006306806D448F60F7108403060FDF793
:107B300075FA16E0ADF80000BDF80000000506D5A6
:107B400030680BEA00003060FDF71EFA09E0BDF86E
:107B500000000004C4D530680BEA00003060FDF777
:107B600099FA306829883840C904298848BF80F4C8
:107B700080508904698848BF80F40050C90669882C
:107B800048BF80F01000890648BF80F020002043E5
:107B9000306001B0BDE8F08FB40E0020400100203D
:107BA000005C0040C50E0020BA0E00202401002019
:107BB0003E483F4A83B0016841F4807101608168AA
:107BC000114081603B4A016811400160016821F465
:107BD00080210160816821F47D0181600021C16004
:107BE000019100910291016841F001010160016879
:107BF00001F002010091009919B90199B1F5A04F66
:107C0000F5D10168490801F00101009100990129AD
:107C100007D1816821F47D018160816841F4880188
:107C200081604FF40062D0F8001441F00401C0F804
:107C30000014D0F8001441F00201C0F80014D0F88C
:107C4000001441F00101C0F80014416A41F0805174
:107C5000416219490A604A68D206FCD48168816091
:107C60008168816081688160816821F47D01816023
:107C7000816841F408018160016841F08071016010
:107C800001688901FCD58168890889008160816863
:107C900041F003018160816801F00C010C29FAD1E7
:107CA0004FF000600549086003B07047003802409B
:107CB0000CC0FF88FEFFFEEE0070004008ED00E003
:107CC000120100020200004083044057000201023A
:107CD0000301000009024300020100C03209040050
:107CE0000001020201000524001001052401000129
:107CF000042402020524060001070582030800FF90
:107D000009040100020A0000000705030240000008
:107D10000705810240000000040309042603530004
:107D200054004D006900630072006F0065006C0034
:107D300065006300740072006F006E0069006300EC
:107D4000730000003203530054004D003300320032
:107D500020005600690072007400750061006C001C
:107D6000200043004F004D00200050006F007200C3
:107D7000740020002000000030B52548017801295A
:107D800081B025D123490A681AB900210170002465
:107D900014E021480368412A1D4603D340244033A0
:107DA000403A02E01446D318002203600A60ADB2E4
:107DB0001A48A2B2C0212818FDF754FBA1B2012035
:107DC000FDF70DFB01B0BDE830400120FDF789BA99
:107DD00001B030BD10B5124C21460320FFF732FE32
:107DE00081B22046FEF721FEBDE810400320FDF7DA
:107DF00088BA0C480068052809D10B4801684A1C5C
:107E00000129026003D100210160FEF766BB7047C3
:107E1000800100205C090020580900208401002016
:107E20002C0E0020BC0E0020B00E002070B5134DAB
:107E3000134C2868134E60806088318808408005A4
:107E400007D54FF6FF5028602078401C2070FFF7C0
:107E5000D0FF608831880840000448BFFFF704FE67
:107E6000608831880840400507D54FF6FF3028600C
:107E7000BDE8704004484068004770BD445C004065
:107E8000B80E0020C00E00209400002000B581B084
:107E900010210848FDF740FF4020FDF7DEFF28B124
:107EA00001B05DF804EB4020FDF7DFBF01B000BD7D
:107EB000000000000008024010B50749794418315D
:107EC000064C7C44163404E00A68081D51188847A3
:107ED0000146A142F8D110BD0800000028000000B2
:107EE00003C0FFFF480D00008001002000000000DB
:107EF000AFBFFFFF80010000340100000000002040
:107F00000000000000F00BF8002801D0FFF7D4FFBC
:107F10000020C046C046FEF74DF800F002F80120F0
:107F2000704700F001B800000746384600F002F83C
:107F3000FBE7000080B5C046C046024A1100182089
:107F4000ABBEFBE7260002007047FEE7FEE7FEE758
:107F5000FEE7704770477047FFF768BFFEF73EBE09
:107F600038B504460D462846FEF750FBA84218BF18
:107F70000024204632BD00000148804701480047E8
:107F8000B17B0008897F0008C046C046C046C04695
:107F9000FFF7B8FFE8030000FFF7FEBFFFF7FEBFE3
:107FA000FFF7FEBFFFF7FEBFFFF7FEBFFFF7FEBF05
:107FB000FFF7FEBFFFF7FEBFFFF7FEBFFFF7FEBFF5
:107FC000FFF7FEBFFFF7FEBFFFF7FEBFFFF7FEBFE5
:107FD000FFF7FEBFFFF7FEBFFFF7FEBFFFF7FEBFD5
:107FE000FFF7FEBFFFF7FEBFFFF7FEBFFFF7FEBFC5
:107FF000FFF7FEBFFFF7FEBFFFF7FEBFFFF7FEBFB5
:10800000FFF7FEBFFFF7FEBFFFF7FEBFFFF7FEBFA4
:10801000FFF7FEBFFFF7FEBFFFF7FEBFFFF7FEBF94
:10802000FFF7FEBFFFF7FEBFFFF7FEBF0000000037
:108030000000050505050505000000000000000022
:1080400000380040003800400004024000040240B4
:108050000008024000080240000402400004024000
:108060000F000F0000040240000402400E000E004A
:1080700000040240000402400D000D000008024010
:1080800000040240000000000000000000000000AA
:1080900000000000000000000000000000000000E0
:1080A00000000000000000000000000000000000D0
:1080B00000000000000000000000000000000000C0
:1080C000E177000803780008F3780008F5780008E5
:1080D000F778000857790008997900087579000841
:1080E0007B79000881790008000000004000000052
:1080F00059520008DD78000859520008595200080A
:1081000059520008595200085952000859520008A3
:10811000EB780008187D0008040000001C7D0008B2
:1081200026000000447D0008320000000801002005
:108130001A0000001A03530054004D0033003200AF
:1081400031003000000000000000000000000000CE
:10815000797D000859520008595200085952000808
:108160005952000859520008595200085952000843
:1081700059520008D57D000859520008595200088C
:108180005952000859520008000000000200000087
:1081900000C2010000000800C07C000812000000BE
:0C81A000D47C0008430000000401000033
:0400000508007F89E7
:00000001FF
